:020000040800F2
:1010000000500020BD4F0008B94F0008B74F00083E
:10101000B74F0008B74F0008B74F000800000000A6
:10102000000000000000000000000000B94F0008B0
:10103000B94F000800000000B94F0008B94F000880
:10104000B74F0008B74F0008B74F0008B74F000868
:10105000B74F0008B74F0008B74F0008B74F000858
:10106000B74F0008B74F0008B74F0008B74F000848
:10107000B74F0008B74F0008B74F0008B74F000838
:10108000B74F0008B74F0008B74F0008E529000820
:10109000C5290008D5290008B74F0008B74F000838
:1010A000B74F0008B74F0008B74F0008B74F000808
:1010B0009D110008B74F0008B74F0008B74F000850
:1010C000B74F0008B74F0008B74F0008B74F0008E8
:1010D000B74F0008B74F0008B74F0008B74F0008D8
:1010E000B74F0008B74F0008B74F0008B74F0008C8
:1010F000B74F0008B74F0008B74F0008B74F0008B8
:10110000B74F0008B74F0008B74F0008B74F0008A7
:10111000B74F0008B74F0008B74F0008B74F000897
:10112000B74F0008B74F0008B74F0008B74F000887
:10113000B74F0008B74F0008B74F0008132A000840
:10114000F3290008032A0008B74F0008B74F00082A
:1011500008B50B4B9988186803F00AFB03F012FBE3
:10116000084B186800F054FA04F048FC064904F0F3
:101170004DFD0146312000F097FA02F06BFE08BDEC
:10118000AC010020400100200000204108B503F020
:1011900029FD01F0BBF908BDFEE7704708B5024B19
:1011A000186800F0FDF908BD4001002000B5ADF25F
:1011B000C46D00F0A5F800F036F93C4C0022214641
:1011C0003B4801F0EBF8012221463A4801F0E6F8ED
:1011D00004234FF400523849384800F028FE384DB7
:1011E00004234FF480522946364800F020FE0423A1
:1011F0001A462146344800F01AFE042308222146EC
:10120000324800F014FE042310222146304800F03A
:101210000EFE0223082229462E4800F008FE022373
:10122000102229462C4800F002FE01F033F800F0AD
:10123000A9F800F0EFF801F03AF900F0FFF800F03B
:101240002BF90DF5D3644FF08041204600F050F9A2
:10125000224B1C600DF59E65002302222049284682
:1012600001F0F8FA8CAE2946304601F0F1FF1D4B33
:101270001D601D4D2E6000231C4A1D4901A800F071
:10128000B3FA2A681B4B1A600A221B49204600F059
:1012900051F964221949204600F04CF90421082034
:1012A00000F0F4F901A800F0E1FBFBE700080140C1
:1012B000C0010020BC01002000100140AC01002052
:1012C000000C0140A40100208C01002094010020AA
:1012D0009C0100207C0100208401002040010020AE
:1012E00000640040380100203C010020E066000856
:1012F00000480040080200208D110008511100082C
:1013000008B51E4803F08CFB4FF0E0231C4AC3F8DD
:101310000C2D40F2023003F0E1FB40F2033003F009
:10132000DDFB4FF4417003F0D9FB40F2053003F0D0
:10133000D5FB40F2923003F0D1FB40F20E3003F0C7
:10134000CDFB4FF4607003F0C9FB4FF4207003F045
:10135000C5FB40F2093003F0C1FB40F2862003F0E8
:10136000BDFB4FF4407003F0B9FB40F2993003F03D
:10137000B5FB4FF4437003F0B1FB08BDCC6C000823
:101380000003FA0530B597B003F080F81E4D054410
:10139000AD021422002101A800F043FD1B4B019374
:1013A0004FF40053ADF8083001238DF80A308DF862
:1013B0000B30174A03920622ADF810208DF8123038
:1013C00000238DF8133003F045F8142101A803F031
:1013D0004FF815902B6D834201D117B030BD03F04B
:1013E0006DF9284603F026F9002407E001AB53F815
:1013F000241005EB840003F07BF90134142CF5D99B
:1014000003F068F9E9E700BFFDFF4100001001406B
:10141000000C014008B51C2003F022FEE0211C2036
:1014200003F02CFE08BD08B54FF41C71032003F037
:1014300011FC002003F0E0FB08BD000070B582B095
:10144000134C002501954FF4006300932B460222B4
:101450002821204603F03AFC0321204603F02EFC0D
:10146000204603F01DFC204603F023FC094EA02378
:1014700002220321304603F047F940230122294686
:10148000304603F041F9204603F0FEFB02B070BD88
:10149000003001400008014010B54FF400730222F3
:1014A0000321104803F030F90F4C1049204603F097
:1014B00021FD0821204603F031FD0021204603F0E4
:1014C00036FD0C21204603F03EFD0021204603F0AE
:1014D00034FD0021204603F03CFD204603F03FFD93
:1014E00010BD00BF000801400038014094580900B9
:1014F00038B505460C460162084603F008FC204654
:1015000003F00AFC094B19684909094BA3FB013197
:10151000C9090139204603F00EFC4FF6FF71204641
:1015200003F00BFC00236B62284638BD3401002019
:10153000C55A7C0AF8B5436A032B00DDF8BD0446A2
:101540000E461546006A03F0F1FB636A134F012251
:10155000F95C206A03F0F3FB636A0022F95C206AFD
:1015600003F0B3FC636A44F8236003F1080105EB60
:10157000850202EB8202920024F811200221994098
:10158000206A03F0B7FB0021206A03F0B0FC206A58
:1015900003F0C7FB636A01336362CFE77C5E000838
:1015A000F8B50546002424E00226A6403146286A04
:1015B00003F0A4FB10B3286A03F097FC87B22B6AF0
:1015C00003EB840304F1080235F812105A6B0A4445
:1015D0005A6355F824309847286A03F086FCC01BEC
:1015E00004F10C0325F813003146286A03F08CFB44
:1015F0000134032C0BDC6B6AA342D5DC6B6AA3427B
:10160000F6DC0221A140286A03F07EFBF0E7F8BD7A
:101610000146002210460FE002F10C0331F81330AE
:101620004FF47A7C0CFB03F302F1080C31F81CC078
:1016300093FBFCF3184401324B6A9342ECDC704795
:1016400008B5C0EBC0020C4B03EB8203DB688B4296
:101650000FDC1346084A02EB83031B698B4201DA55
:10166000FF2007E0054B43F82010FFF796FD002010
:1016700000E0FF2008BD00BF3C6000080000002023
:10168000014B53F820007047000000204901024B35
:1016900043F82010704700BF00000020014B43F8C2
:1016A000201070470000002010B5044608464FF097
:1016B000844104F0F7F904F0BBFB024B43F824002B
:1016C00010BD00BF0000002070B506460024074D85
:1016D000312C09DC3146686800F002FB10B101349E
:1016E0001C35F5E7E0B270BD3320FCE73C60000834
:1016F0000023064A312B07DC118B814202D00133D3
:101700001C32F7E7D8B27047332070473C600008BE
:10171000C0EBC000014B03EB800070473C60000849
:1017200038B50024074D05E06969E0B2FFF7B6FF60
:1017300001341C35312C03DC2B8B002BF8D0F3E764
:1017400038BD00BF3C600008014B1954704700BF12
:1017500044010020024B1A5C11431954704700BF2A
:1017600044010020024A135C23EA0103135470472A
:1017700044010020014B185C704700BF4401002069
:10178000C0EBC000024B03EB8000807E704700BFBF
:101790003C60000808B52021806803F006FC08BD05
:1017A00008B5806803F0F9FB08BD000038B50446B1
:1017B00043680C4D5979284602F0D1FE636804F164
:1017C00029025979284602F0DCFE636880225979A3
:1017D000284602F0E6FE63685979284602F0B6FE14
:1017E00038BD00BF00000240F8B504460D464F4921
:1017F00001604F4901608560037302610121017539
:101800004175817500228261C26180F820204262A8
:1018100080F828104749416002E0183161600132C8
:10182000022A03D861680868A842F6D1424A1460C7
:10183000002B75D062681069002B74D063689B8A96
:101840000222032102F060FF4FF4E131284603F049
:1018500051FB0821284603F061FB4FF40051284654
:1018600003F065FB0C21284603F06DFB00212846A0
:1018700003F063FB0021284603F06BFB284603F0CE
:101880007EFB284603F080FB63682C4E19793046B6
:1018900002F002FE63681979304602F04EFE63687A
:1018A0002F1D3A461979304602F062FE6368002225
:1018B0001979304602F01EFE63680022197930461D
:1018C00002F00BFE63681979304602F020FE63686F
:1018D0005979304602F0E0FD63683A46597930465E
:1018E00002F046FE636800225979304602F002FE9B
:1018F000636800225979304602F0EFFD6368597938
:10190000304602F004FE63685979304602F01EFE4C
:101910002046FFF74BFF284603F021FB2046F8BD89
:101920006268906888E763689B8989E700660008B9
:101930005466000804660008780100200000024098
:1019400038B50D460469437D5BB1216829B128464D
:1019500000F0C6F908B10834F7E723681BB1204648
:1019600038BD0024FBE71C46F9E738B505460C46B0
:1019700003E0A86803F0F8FA013421780029F8D1CF
:1019800038BD000010B50446084600F015FA00F016
:10199000FAF9237D83420DD000236375237B0BB3BB
:1019A000626810690BB363689B8A0122002102F010
:1019B000ABFE10BD01236375237B6BB162681069B8
:1019C0006BB163689B8A0222032102F09DFE0849E5
:1019D0002046FFF7CAFFECE762689068F0E76368AB
:1019E0009B89F0E762689068DCE763689B89DCE7C5
:1019F0004069000830B585B00446084600F0DCF9BF
:101A00000378302B11D0322B0DD04FF46125637D3C
:101A100073B92946A06803F06DFA0021A06803F0AD
:101A200086FA05B030BD0D4DF1E74FF4E135EEE734
:101A30000A22294601A800F079F909492046FFF752
:101A400094FF08492046FFF790FF01A92046FFF7C1
:101A50008CFF05492046FFF788FFDAE71055220082
:101A600040690008B4650008046C0008F8B5044635
:101A700043685979494802F08DFD0646C0F180055A
:101A800058B92046FFF792FE07E05A1CE261234452
:101A900093F82910A06803F067FAE369AB42F4DB1E
:101AA000002D1FDDC6F17F06264496F829300A2B4B
:101AB00013D00D2B11D094F82930212B12D1A3690A
:101AC00083B12046FFF772FE0023E361A3695B68E0
:101AD00004F2A9112046984704E0012D03DC2046BA
:101AE000FFF764FEF8BD6319002283F82920E26144
:101AF00004F129072021384600F010F90646037842
:101B00001BBB0A21384600F009F90646002384F879
:101B1000A9313378FBB100233370A36120493846E3
:101B200000F0DEF80646E0B904F2A9112046FFF7FE
:101B300029FFA36943B3A06803F033FAA3695B6884
:101B400004F2A91120469847C9E7411C04F2A910E4
:101B500000F0D4F8DDE70D21384600F0DFF8064646
:101B6000D9E71049384600F0BBF8064628B904F218
:101B7000A9112046FFF73EFFDBE739462046FFF775
:101B8000DFFEA0612E46D4E7012EA8DD637D002B89
:101B9000A5D005492046FFF7E8FEA0E70000024077
:101BA000C4650008D0650008DC65000870B504460F
:101BB0000E466368022219791A4802F084FC18B9AB
:101BC00094F82830002BF4D06368164D1979284614
:101BD00002F0C5FC6368B2B21979284602F0E1FC54
:101BE000636894F82020D201A83222440132197986
:101BF000284602F0C6FC636802221979284602F0E2
:101C00005CFC63681979284602F0A0FC94F8203047
:101C1000B3FA83F35B0984F82030002384F828307A
:101C200070BD00BF0000024010B50446837D73B153
:101C30000A2910D0436A7F2B0DD090F8202000EBAA
:101C4000C2121A4482F8A9100133436210BD8068A1
:101C500003F08AF9FAE794F82030626A04EBC313C0
:101C6000134483F8A910511C2046FFF79FFF00235F
:101C70006362EBE708B5044B1B681A681268C1B2CF
:101C80001846904708BD00BF78010020704708B58E
:101C900000F058FC08BD000000B583B00649D1F83B
:101CA000F027D1F8EC37D1F8E8170091034900F09C
:101CB000CFFA03B05DF804FB00F0FF1F5866000880
:101CC00010B50446FFF72CFD0249204600F0C0FA8B
:101CD00010BD00BF6C66000808B501F0D1FB08BD5F
:101CE000431E013913F8010F11F8012F10B10AB189
:101CF0009042F7D0801A18BF01207047013911F8BF
:101D0000013F0BB90370704700F8013BF7E703464A
:101D100000201A5C02B970470130FAE70346184602
:101D200013F8012B0AB18A42F9D170470029034602
:101D3000F0B520DA2D2003F8010B012049421D46A1
:101D4000C71A91FBF2FC02FB1C11303129702C46A2
:101D5000BCF1000105F101051E4605EB0700F0DCB2
:101D600000232B70B4420BD93378227806F8012B6C
:101D700004F80139F6E704D13022417002700120E5
:101D8000F0BD0020DBE730B503782D2B11D14FF0EB
:101D9000FF34013000210A25431E01E005FB01212B
:101DA00013F8012F303AD0B20928F7D904FB01F01B
:101DB00030BD0124EEE7000010B5134C0278014657
:101DC000A2F10A03DBB2162B00F1010017D9A2B170
:101DD0000846FFF79CFF0C4C01380844814202463C
:101DE00009D2137801380A3BDBB2162B03D824FA48
:101DF00003F3DB07F2D400235370084610BD24FA26
:101E000003F3DA07DAD4E3E709004000002310B552
:101E1000934200D110BD51F8234040F823400133D4
:101E2000F6E7013A00D2704740F8041BF9E7F8B52D
:101E30000C46154601608280013B042B04D8DFE884
:101E400003F017070B0F1300002302271E4612E0B2
:101E5000002301271E460EE000231F461E460AE00F
:101E600000231F46032606E001231F46032602E047
:101E700001230227002633B92B463A463146204635
:101E800002F042FCF8BD2946204602F06CFCF3E764
:101E9000012800D070474FF6FF739942FAD1024BE8
:101EA0004FF400421A80F5E7B401002008B54FF660
:101EB000FF710120FFF7ECFF08BD70B50C1EB4BF29
:101EC0004FF0FF3301235C430133064608BF2D2347
:101ED0004FF0640208BF06F8013B611104F01F04D3
:101EE0000546544330460A22FFF720FF2E22641194
:101EF000092C3254D8BF302206EB0003D8BF5A70E9
:101F000021464FF00A02CCBF581C981CFFF70EFF69
:101F1000284670BDF0B503782D2B17D14FF0FF3652
:101F2000013000244FF00A0C02E018460CFB045468
:101F3000034613F8012BA2F13005EFB2092FF4D9B3
:101F4000AAB98C40224406FB02F0F0BD0126E8E766
:101F50008B4003EB650393FBF5F30CFB05F51A448B
:101F600010F8013F303BDFB2092FF1D9E9E70A252C
:101F70000022AC46F4E72DE9F04105460F46161E57
:101F800012DD0A46002101E00131013210780028FB
:101F9000FAD1B14206DA761A13F0020F13D14FF0DC
:101FA000200803E00026F7E74FF0200813F00104B3
:101FB0000CD1002E12DD2B681B684146284698473D
:101FC0000134013EF5E74FF03008EFE7002405E06B
:101FD0002B681B6828469847013401373978002957
:101FE000F6D106E02B681B68414628469847013425
:101FF000013E002EF6DC2046BDE8F0812DE9F041DF
:1020000084B00746DDF828800C9859B11E460C466E
:1020100013B10A2A13D0002600238DF80D300DF1DC
:102020000D0518E030238DF8003000238DF80130C5
:102030000B9B424669463846FFF79DFF32E0002978
:1020400001DB0026E8E74C420126E5E7303105F8E0
:10205000011DB4FBF2F44CB1B4FBF2F102FB1141EF
:102060000929F3DDA0F13A031944EFE79EB1B8F175
:10207000000F0BD00B9B13F0020F07D03B681B68BF
:102080002D213846984708F1FF3804E02D2305F844
:10209000013C013D00260B9B424629463846FFF78E
:1020A0006AFF304404B0BDE8F08108B50846FFF788
:1020B000E1FD08BD70B584B0044615461E4668466D
:1020C000FFF7FBFE33462A4669462046FFF753FFDB
:1020D00004B070BD70B588B006460C460592002568
:1020E00087E0A21C012391E000222178A1F1300CAD
:1020F0005FFA8CFCBCF1090F06D802EB8202303982
:1021000001EB42020134F0E773291AD0642923D08D
:10211000782930D058293DD075294AD0662957D022
:10212000632965D10599081D059009688DF81C1073
:1021300000218DF81D1007A93046FFF71CFF05444C
:1021400056E00599081D0590096801B935493046E2
:10215000FFF711FF05444BE00599081D059009683C
:10216000612002900193009201230A223046FFF77A
:1021700045FF05443CE00599081D0590096861206C
:10218000029001930092002310223046FFF736FFA1
:1021900005442DE00599081D05900968412002902D
:1021A00001930092002310223046FFF727FF0544D9
:1021B0001EE00599081D05900968612002900193B1
:1021C000009200230A223046FFF718FF05440FE073
:1021D0000599081D059009683046FFF76BFF054417
:1021E00006E0144633681B6821783046984701356D
:1021F000013423789BB1252BF4D1621C637873B131
:10220000252BEED02D2B3FF46CAF00231446227803
:10221000302A7FF469AF013443F00203F7E7284620
:1022200008B070BD506700080FB400B583B004AAB1
:1022300052F8041B054B0193009201A8FFF74AFFD7
:1022400003B05DF804EB04B0704700BF606700089E
:102250000EB400B582B003AA52F8041B0192FFF736
:1022600039FF02B05DF804EB03B07047012800D0DD
:1022700070474FF6FF739942FAD1034B034A13603C
:102280000233034A1360F3E7C4010020C0010020B9
:10229000BC01002038B52A4C204601F0AFFE204694
:1022A00001F0B1FE204601F0B8FE204601F0B0FE7C
:1022B0000121204601F08DFE204601F053FE00234F
:1022C00000E001331F4A9342FBDD1D4D284601F01B
:1022D00063FE284601F073FE1B4A0221284601F0E6
:1022E000A1FE284601F0CDFE184C194A01212046D6
:1022F00002F03EF9174A0121204602F042F94FF45C
:1023000080720121204602F0F5F84FF4806201212D
:10231000204602F0E2F818220121204602F041F99D
:102320000121204602F0F3F80121204602F0F8F8DE
:102330000121204602F00AF9284601F01BFE38BDB3
:10234000002401407F380100B80100200000024055
:102350004C240140C401002008B50F4B98420FD017
:1023600003F58063984211D0A3F50063984203D02F
:1023700001F008FE102008BD0729F9DCC8B2FAE711
:102380000129F5DCC9B20831C8B2F4E70529EFDC50
:10239000C9B20A31C8B2EEE7000C014070B504467C
:1023A0000D461646012393409BB200221146284653
:1023B00002F0AAF92468054BE41A64103146284655
:1023C000FFF7CAFFA4B2024B185570BDC40100202C
:1023D000B801002008B54FF6FF710120FFF746FF56
:1023E00008BD000008B502F051F8024B0344980202
:1023F00008BD00BFFFFF41002DE9F043ADF2044DE1
:10240000FFF7F0FF0746024600234FF0FF3503E0D9
:1024100052F8041B0D400133FF2BF9DD02F01AF8CE
:102420004FF480724FF0FF316846FFF7FAFC00244A
:1024300000E00134312C1AD8E6B23046FFF7A0F99B
:102440000028F6D13046FFF763F980463046FFF7A3
:1024500091F90DEBC40989F80300B8F818302DF88C
:1024600034303046FFF70CF9C9F80400E1E7FE21EB
:10247000684601F0FDFFFE9002F020F9B5F1FF3F44
:1024800001D100240AE0384602F0D4F8F9E75DF8FB
:10249000241007EB840002F02BF90134FF2CF6D94D
:1024A00002F018F9FE980DF2044DBDE8F083F8B57E
:1024B000FFF798FF064601F0CDFFFE21304601F000
:1024C000D7FFD6F8F83383421AD1002500E0013552
:1024D0007E2D18D836F83500FFF70AF90446332860
:1024E000F5D0FFF74DF90028F1D106EBC507796863
:1024F0002046FFF7D3F8F9782046FFF725F9E6E7FD
:102500004FF0FF3000E00020F8BD0000014B1860E4
:10251000704700BFF401002008B5074B03EBC10270
:1025200092F804C053F83130044A52F82C20014686
:102530000348FFF779FE08BDBC670008CC670008B8
:102540006467000810B50B4B5B6873B10024032C63
:102550000ED8084B03EBC403586848B1054B13F879
:102560003410FFF7D9FF0134F1E70348FFF75CFEB1
:1025700010BD00BFC80000207467000810B58AB005
:102580000F4B01EB410203EB820453F822206468F5
:1025900001EB410103EB81018B68D0F8A40100211C
:1025A0000891079106930594049203910291019179
:1025B00000910B46012201F075FD0AB010BD00BF6D
:1025C000D8670008F0B583B004460D4616461F468E
:1025D0000121D0F8A40101F06AFE019600970023C2
:1025E000B5F5006F34BF002201222946D4F8A401BA
:1025F00001F062FE002805DBD4F8A031002B15DCC9
:1026000003B0F0BDD4F8A031132BF5DC9A1D1101F5
:1026100004EB021265505760316804EB03129166B7
:102620007168D1660133C4F8A031E5E70121D4F81F
:10263000A40101F038FEE3E7012801DD0020704726
:10264000014B53F820007047F801002030B58BB0E3
:1026500004460D4607E006AA0999204600F037FA1D
:1026600002F0C0FA60640023059306AB04930DF1F9
:102670002103039308AB02930DF1220301930DF1A3
:102680002303009309AB0122E9B2D4F8A40101F0BD
:102690008AFE0028DFD10BB030BD30B583B00446D0
:1026A00000F1600504E0D4F8A031013BC4F8A0318A
:1026B000D4F8A031002B17DD03F18053013B1A0140
:1026C00005EB0313A95803F1080201921B7900934B
:1026D0000023B1F5006F34BF00220122D4F8A40119
:1026E00001F0EAFD0028DEDAD4F8A0310BB103B026
:1026F00030BD0121D4F8A40101F0D9FDF7E7F0B510
:1027000085B00E4615461C461068B3F800C05A88BE
:102710009B88E7885B019BB2520192B24FEA4C1C46
:102720001FFA8CF14FF0010CCDF808C000EA0C0C38
:10273000CDF804C07F01BFB2009701F097FD0023E0
:1027400033602A6801322A60E380A380638023809B
:1027500005B0F0BD70B582B00E4615461C46106837
:102760001968C9005A68D20001230093034042F05F
:10277000040241F0040101F089FD002333602A685E
:1027800001322A606360236002B070BD30B589B049
:10279000054600230693079304930593039302933E
:1027A000D0F8A4212A4B9A420AD0A3F58063D3F82B
:1027B000003AC3F3052301930024C2F81C4210E041
:1027C0000023F8E7039A08A901EB420121F8083C2D
:1027D00001320392039B042B15D0029B022B19D0CC
:1027E00001342B6CA3421CDD05EB44039B88B3F53D
:1027F000006FE7D3029A08A901EB820141F8103C6F
:1028000001320292E6E706AB01AA03A92846FFF7C8
:1028100076FFE2E704AB01AA02A92846FFF79AFF78
:10282000DEE7039B002B04DC029B002B08DC09B0D5
:1028300030BD06AB01AA03A92846FFF760FFF3E706
:1028400004AB01AA02A92846FFF784FFEFE700BF07
:1028500000640040F8B504460D4616461F4600F0D9
:10286000E3F8534B23600023C4F8A031C4F8A4510B
:10287000504B9D421AD003F580639D4258D0D4F846
:10288000A40101F003FC31462046FFF777FE204605
:10289000FFF77CFF0221D4F8A40101F004FD102110
:1028A000D4F8A40101F0FFFC2046F8BD5FB3424D0F
:1028B0004FF4807302220021284601F025FF4FF4D7
:1028C0008071284601F04FFF4FF40073022203216C
:1028D000284601F019FF142002F0C2FBF021142059
:1028E00002F0CCFB152002F0BBFBF021152002F01A
:1028F000C5FB132002F0B4FBF021132002F0BEFB55
:102900002E4B1C60BBE72E4D4FF4006302220021CA
:10291000284601F0F9FE4FF40061284601F023FF3C
:102920004FF4805302220321284601F0EDFED2E746
:1029300047B3214D202302220021284601F0E4FE66
:102940002021284601F00FFF4023022203212846C0
:1029500001F0DAFE402002F083FBF021402002F07B
:102960008DFB412002F07CFBF021412002F086FB30
:102970003F2002F075FBF0213F2002F07FFB0F4B60
:102980005C607CE70C4D4FF4805302220021284606
:1029900001F0BAFE4FF48051284601F0E4FE4FF4F6
:1029A000005302220321284601F0AEFED2E700BF09
:1029B0001C68000800640040000C0140F801002081
:1029C0000008014008B50020FFF736FE0021FFF7A0
:1029D0003DFE08BD08B50020FFF72EFE0121FFF7E0
:1029E00035FE08BD08B50020FFF726FEFFF755FEAF
:1029F00008BD08B50120FFF71FFE0021FFF726FEE6
:102A000008BD08B50120FFF717FE0121FFF71EFEE4
:102A100008BD08B50120FFF70FFEFFF73EFE08BD19
:102A20000020704770470000074B036000230364D9
:102A3000836406E003F1120200EB82020349516055
:102A40000133042BF6DD704730680008E8000020F1
:102A5000836C042B01DD0020704703F1120200EBB0
:102A600082025160013383640120704710B5046C09
:102A70001D2C15DC002300E001339C4206DD00EB39
:102A8000430292888A42F7D100200AE000EB440317
:102A900099800134046403689B689847012000E032
:102AA000002010BD38B505460024046403689B6807
:102AB000984708E004F1120305EB830358680368A4
:102AC0005B6898470134AB6CA342F3DC38BDF8B5C2
:102AD00005460F461646002400E00134AB6CA342C5
:102AE0000BDD04F1120305EB8303586803681B68D0
:102AF0003246394698470028EFD0F8BD70B50546F4
:102B000000F13006344604E034F8041B6868FFF72F
:102B1000ADFFA31B242B02DCA378322BF4D170BDB4
:102B20002DE9F041DDF82480002488F8004000F110
:102B30000807002C3FD13E46F41B242C33DCB4782C
:102B4000322C30D004EB440C4FEA8C0C0CF1580CB6
:102B500000EB0C0E07E00CEB4C0C4FEA8C0C0CF16C
:102B6000580C00EB0C0E9EF809C0BCF1FF0F18D0FA
:102B7000BEF804508CB2A542EDD1318811609EF8A8
:102B800007201A709EF80820069B1A70DEF80020B5
:102B9000079B1A609EF90620089B1A700120BDE869
:102BA000F0810436C8E798F80040012588F8005005
:102BB00000F13007BDE70020F1E72DE9F04385B0D3
:102BC0000646884600F1080900273B4625E00297A3
:102BD00094F90630019323680093237AE2792988D7
:102BE0002079C047647A04EB4404A4005834344488
:102BF000637AFF2BEBD10435A5EB0903242B08DC0A
:102C0000AB78322B05D003EB4304A4005834344492
:102C1000EEE706F130093B4601270BB94D46EBE7DD
:102C200005B0BDE8F0830023092B07DC01EB83022C
:102C30004FF0320C82F802C00133F5E7002307E0C1
:102C400003EB430200EB8202FF2182F861100133A3
:102C5000322BF5DD704710B5044600F10801FFF78F
:102C6000E2FF04F130012046FFF7DDFF6068FFF767
:102C700019FF10BD70B50C46631A242B24DCA37811
:102C8000322B23D003EB430C4FEA8C0C0CF1580C85
:102C9000844400269CF80930FF2B13D0BCF8045064
:102CA0001FFA82FE754507D003EB43039B005833A0
:102CB000664600EB030CEDE716B17372012070BDA0
:102CC000A370FBE70434D7E70020F8E70020F6E71D
:102CD00070B504460D460A4600F10801FFF7CAFF29
:102CE00006462A4604F130012046FFF7C3FF304470
:102CF00070BD2DE9F041884615461F460024264642
:102D00000AE0286801F0AEFB064655F8041B08EB04
:102D1000840001F0EDFC0134BC42F2DB3046BDE83A
:102D2000F081084600E00430431A242B06DC837847
:102D3000322B05D003889342F5D102E00020704782
:102D4000002070472DE9F041334B1B781BB1002464
:102D50002046BDE8F0810646174603F0FF040A4608
:102D600000F13001FFF7DDFF0028F1D0837803EB9D
:102D70004304A400583434441FE03B6823FA00F0B5
:102D8000227A01239340013B184002F033FE0546AE
:102D900025E0B4F804804FF08441284602F082FE1A
:102DA00003F046F801465FFA88F0FEF749FC647AC2
:102DB00004EB4404A40058343444637AFF2B29D034
:102DC000E0791F28D9D97B68203823FA00F0227ACD
:102DD00001239340013B184002F00CFE054694F994
:102DE000060002F00BFE294602F054FD0146206861
:102DF00002F058FE05462079FEF7C2FC0028C8D034
:102E00002079FEF7BDFC0128C3D029462079FEF7C2
:102E10004BFCCCE701249BE7000200202DE9F8439E
:102E20009DF820709DF82480B3F5006F61D20446B0
:102E30000D46164699463F2F5ED8B8F1200F5ED852
:102E40001A46FFF76EFF844608B1002211E0002108
:102E5000092907DC05EB81039A78322A01D0013178
:102E6000F6E79C46BCF1000F4DD0ACF80090ECE7C3
:102E70000132312A07DC02EB420304EB830393F8AF
:102E80006130FF2BF4D1322A40D09CF8023000216F
:102E90000AE003EB430189005831214403EB43036B
:102EA00004EB830393F86130322BF2D102EB420042
:102EB00004EB8004A4F85C600A9BA3659DF92C30A8
:102EC00084F85E3084F85F7084F86080322384F880
:102ED000613059B14A722B4600205A1B242A10DC5B
:102EE0009A78322A0DD001300433F6E78CF80220AC
:102EF000F1E74FF0FF3004E06FF0010001E06FF008
:102F00000200BDE8F8836FF00300FAE76FF00400F9
:102F1000F7E710B584B09DF920400394079C029414
:102F20009DF818400194009313460A4600F10801E9
:102F3000FFF774FF04B010BD70B584B004461546A9
:102F40009DF928200392099A02929DF8202001926F
:102F500000932B460A4600F13001FFF75FFF06465B
:102F600029466068FFF782FD304604B070BD00005E
:102F700008B501F08BFA024B0344980208BD00BF6C
:102F8000FEFF41002DE9F04F87B00746FFF7F0FF45
:102F900005460590D0F8E84301F05CFAFA2128468E
:102FA00001F066FA844203D0002007B0BDE8F08F3C
:102FB00007F1080BDDF8149023E02088FEF798FB5A
:102FC0000546B9F8008094F90560B4F902000023C1
:102FD000039302F013FD0290F6B201962379009359
:102FE00043462A4659463846FFF718FF0634A4EBF5
:102FF0000A032A2B03DC94F90530002BDDDC09F1F0
:103000003209059BA9EB0303B3F5E17F09DCB9F8AD
:1030100000204FF6FF739A4203D009F1020A54468A
:10302000E5E7059B03F5FA73059307F1300B994625
:1030300027E02088FEF75CFB0546B9F8008094F98C
:103040000560B4F9020002F0D9FC002303934FF0AD
:10305000745102F027FD0290F6B201962379009395
:1030600043462A4659463846FFF7D8FE0634A4EBB5
:103070000A032A2B03DC94F90530002BD9DC09F173
:103080003209059BA9EB0303B3F5E17F09DCB9F82D
:1030900000204FF6FF739A4205D009F1020A544608
:1030A000E5E7012081E701207FE7F8B505460F46F7
:1030B0000E460EE02079FEF72BFB038BA380647A8B
:1030C00004EB4404A40058342C44637AFF2BF1D160
:1030D0000436F31B242B08DCB378322B05D003EB2A
:1030E0004304A40058342C44EFE7F8BDF8B5054676
:1030F0000F460E460DE0A088FEF7FAFAA080647A2B
:1031000004EB4404A40058342C44637AFF2BF2D11E
:103110000436F31B242B08DCB378322B05D003EBE9
:103120004304A40058342C44EFE7F8BDF0B583B055
:103130000546FFF71DFF064602462A4B012119707E
:1031400000234FF0FF3403E052F8041B0C4001331E
:10315000FF2BF9DD01F07EF901F0B0FA022001F059
:10316000A3FAB4F1FF3F38D105F1080739462846E4
:10317000FFF79BFF05F1300421462846FFF795FF36
:103180000A233A4631462846FFF7B3FD0A23224672
:1031900006F128012846FFF7ACFD0190962305F1C2
:1031A000580206F150012846FFF7A3FD01900123C4
:1031B00001AA06F52D712846FFF79BFD01F08AFA5A
:1031C00039462846FFF792FF21462846FFF78EFF33
:1031D000044B00221A7003B0F0BD304601F02AFA09
:1031E000C2E700BF00020020F8B50546FFF7C0FEA9
:1031F0000446D0F8B46201F02DF9AA21204601F06E
:1032000037F9864203D02846FFF7BCFEF8BD05F12A
:1032100008070A2221463846FEF7F8FD05F1300678
:103220000A2204F128013046FEF7F0FD962204F14F
:10323000500105F15800FEF7E9FD39462846FFF731
:1032400055FF31462846FFF751FF0120DEE7000019
:1032500010B5044608460D4B23600D4B236061609A
:103260002146FFF7F5FB04F108012046FFF7DBFCE0
:1032700004F130012046FFF7D6FC2046FFF7B4FFEB
:103280002046FFF73BFC204610BD00BF54680008F5
:10329000646800082DE9F04184B00C4615461E46CE
:1032A0009DF83070FEF734FAD0F804801449154BBD
:1032B0001868FEF7CDFFE7B11349124B1868FEF707
:1032C000C7FF4FF084410A9802F0ECFB0D4B1F68DA
:1032D0009DF92C30039302F0ABFD0290019600950E
:1032E0002346424609493846FEF7B2FF04B0BDE81E
:1032F000F0810749034B1868FEF7AAFFE1E700BF1A
:103300006C68000804020020746800087C680008EB
:103310007868000870B504460846FEF74DFD05467E
:103320002021FEF7FBFC0378A3B1002300F8013B4A
:103330000521FEF7EFFD06462846FEF7C5F93328BE
:1033400012D03146FEF77CF948B90A492046FEF70B
:103350007FFF03E008492046FEF77AFF70BD07496A
:103360002046FEF775FFF9E72A4605492046FEF795
:103370006FFFF3E7AC68000890680008B8680008C1
:10338000D0680008F8B507460846FEF715FD054663
:103390000BE0FEF775F902460E493846FEF758FF76
:1033A000254605F8016B2C2E12D12C212846FEF75C
:1033B000B5FC04460678002303702846FEF784F91E
:1033C0003328E6D12A4604493846FEF741FFE7E7AD
:1033D000F8BD00BFE8680008F06800082DE9F0417A
:1033E00007460846FEF7E8FC80462021FEF796FCDB
:1033F00003789BB104460646002306F8013B40468D
:10340000FEF762F90546332829D06378212B0AD0CC
:103410007E2B08D02F2B06D0002406E01349384617
:10342000FEF716FF0FE0A61C012431461048FEF7F8
:1034300057FC50B974B101212846FEF793F90D49A4
:103440003846FEF705FFBDE8F0810B493846FEF728
:10345000FFFEF8E701212846FEF77CF9EFE7424638
:1034600006493846FEF7F4FEEDE700BF0C69000898
:103470001C6900083469000824690008D068000845
:103480002DE9F04F8BB007460846FEF795FC037810
:10349000059346493846FEF7DBFE00264FF020082C
:1034A00022E0434A039202930190CDF800A04B46DC
:1034B000424640493846FEF7CBFE2846FEF760F903
:1034C00020B12846FEF75CF901285AD1E268236949
:1034D0006169206802960190009137493846FEF7ED
:1034E000B7FE4FF02C080136312E51D8F5B22846E0
:1034F000FEF70EF904462846FEF73CF910F0010FDE
:1035000002D0059B682BEED1D4F80490D4F808A023
:10351000B4F818B02846FEF7B3F80290CDF804B01E
:10352000CDF800A04B46424624493846FEF790FEAF
:103530000DF11F0303930DF11E03029309AB0193D9
:103540000DF11D03009307AB08AA29461C4800682B
:10355000FFF7E6FA0028B0D0DDF820809DF81C9037
:103560009DF81DA04FF08441099802F09BFA02F0EB
:103570005FFC9DF91E309DF81F20002A91D0114A52
:1035800090E711493846FEF763FE4FF02C08AAE792
:103590000E4BD3F8F0270E493846FEF759FE0D4979
:1035A0003846FEF755FE0BB0BDE8F08F58690008AD
:1035B000486900088C690008F06900085C69000827
:1035C0000802002050690008DC69000800F0FF1FB5
:1035D000406A00087C6A00082DE9F0478AB004467A
:1035E0000023059306930793089309930846FEF773
:1035F000E3FB0578702D39D0632D45D02021FEF7EF
:103600008DFB0378002B48D0FEF7D6FB0746202120
:10361000FEF784FB064603780BB9642D44D10023E2
:1036200006F8013B3846FEF74FF881463046FEF774
:10363000C3FB0646B9F1330F3BD0642D3ED04FF0AB
:1036400000084FF07E5AB8F1040F62DC20213046AA
:10365000FEF764FB07460378002B3AD1B8F1020F5E
:1036600037DC55492046FEF7F3FD1AE0534B1B6843
:10367000002BFBD1514D2C605149524B1868FFF77C
:103680009CFA00232B600CE04E4B1868FFF7E3FA1E
:103690004D492046FEF7DCFD03E047492046FEF792
:1036A000D7FD0AB0BDE8F08743492046FEF7D0FDBC
:1036B000F7E746492046FEF7CBFDF2E74946414B86
:1036C0001868FFF705FB024641492046FEF7C0FD9A
:1036D000E7E700233B703046FEF755FBB8F1030FD8
:1036E0000BD00AAB03EB880343F8140C781CFEF7ED
:1036F00063FB064608F10108A5E710213046FEF7F6
:1037000009FC02F07BF94FF05E5102F0CBF98246E2
:10371000ECE7742D17D09DF924300293CDF804A066
:103720009DF81C3000939DF81830059A49462548AD
:103730000068FFF701FC431D042B32D8DFE803F0DB
:10374000262C201A14009DF924300293CDF804A0F1
:103750009DF81C3000939DF81830059A4946194889
:103760000068FFF7D6FBE6E7059A1A492046FEF700
:103770006FFD96E7069A18492046FEF769FD90E727
:10378000079A16492046FEF763FD8AE7059A144911
:103790002046FEF75DFD84E712492046FEF758FDFE
:1037A0007FE7012806DD104B024610492046FEF750
:1037B0004FFD76E70E4BF7E7AC6A000804020020E5
:1037C0009532000808020020886A0008C06A0008D4
:1037D000D46A0008EC6A0008006B0008146B00084B
:1037E000286B0008506B0008846A00086C6B0008A6
:1037F0004469000810B504460C4B1B788BB172B6B7
:103800000B4B1868FFF792FC0A492046FEF720FD93
:10381000FEF7F2FD024662B607492046FEF718FDA4
:1038200010BD0649FEF714FDFAE700BFEC000020CA
:1038300008020020986B0008A86B0008C46B000801
:1038400010B5044672B6FEF732FE62B638B93220C1
:10385000FDF7A3FC04492046FEF7FAFC10BD03491E
:103860002046FEF7F5FCF9E7086C00081C6C000820
:1038700008B501F0EDFB2DE9F843054688461746EB
:10388000002607E008F80600013623782C2B13D118
:10389000BE4211D22C212846FEF740FA044690F889
:1038A0000090002303702846FDF70EFF254605F81B
:1038B000019B3328E6D1E8E73046BDE8F8830000F5
:1038C0002DE9F04184B006460846FEF775FA044635
:1038D000FEF759FA804620212046FEF71FFA0378AA
:1038E0004BB10A2201A90130FFF7C5FF0746304658
:1038F000FDF756FF26E019493046FEF7A9FC04B053
:10390000BDE8F081B8F1FF3FF9D1154D00240EE07C
:1039100004F110036B4413F80C0CFDF7B1FE0346E1
:103920002A4610493046FEF793FC01340E4DBC4246
:10393000EEDB0E493046FEF78BFCB8F1FF3F01D0BD
:1039400008F1FF383046FDF725FF0028D7D1B8F140
:10395000000FD7DD024D0024E9E700BF346C0008FA
:1039600044690008546C000888690008046C000869
:1039700070B504460D468E4B9988186800F0F5FE28
:103980008C4E2188304601F084F98B4B1880618879
:10399000304601F07EF9894B1880894B00221A705D
:1039A0000FE0884B1988834801F073F9824B188027
:1039B000010A834A1378844CE154591C6054023341
:1039C00013707F4B1B78482BEBD9794B998818687B
:1039D00000F0C9FE473D042D00F2E180DFE805F06C
:1039E000032E5B87B300002523E00134022C1FDC8B
:1039F00005EBC5035A1C02EB440273498A5C03EBD6
:103A00004403C85C00EB022080B24FF6FF7398427B
:103A1000EBD001F09DFC00226C4B01F02DFEC5EBBC
:103A20000516264401F010FF694B23F81600DCE769
:103A30000135082D00F3B3800024D7E7002525E0E9
:103A40000134052C21DC05EBC5035A1CA4F1030C41
:103A500002EB4C025C498A5C03EB4C03C85C00EB54
:103A6000022080B24FF6FF739842E9D001F070FC5B
:103A70000022564B01F000FEC5EB0516264401F06E
:103A8000E3FE534B23F81600DAE70135082D00F367
:103A900086800324D5E7002525E00134082C21DCAD
:103AA00005EBC5035A1CA4F1060C02EB4C02464977
:103AB0008A5C03EB4C03C85C00EB022080B24FF63B
:103AC000FF739842E9D001F043FC00223F4B01F024
:103AD000D3FDC5EB0516264401F0B6FE3C4B23F89A
:103AE0001600DAE70135082D59DC0624D6E7002553
:103AF00025E001340B2C21DC05EBC5035A1CA4F195
:103B0000090C02EB4C0230498A5C03EB4C03C85CA5
:103B100000EB022080B24FF6FF739842E9D001F02B
:103B200017FC0022294B01F0A7FDC5EB0516264422
:103B300001F08AFE264B23F81600DAE70135082D3E
:103B40002DDC0924D6E7002525E001340E2C21DCEC
:103B500005EBC5035A1CA4F10C0C02EB4C021A49EC
:103B60008A5C03EB4C03C85C00EB022080B24FF68A
:103B7000FF739842E9D001F0EBFB0022134B01F0F8
:103B80007BFDC5EB0516264401F05EFE104B23F8C5
:103B90001600DAE70135082D01DC0C24D6E70023F6
:103BA00041F64B52934202DC00BF0133F8E770BD8F
:103BB0009C01002000300140DA030020DC030020DB
:103BC000D5030020D80300200C020020000029406B
:103BD000E402002010B5364B9988186800F0C5FD46
:103BE000344B1988344801F054F8344B18800023C2
:103BF000334A1370334A1370334A137006E0304B64
:103C000000221A70304A1378013313702E4B1B7840
:103C10001F2B1AD82D4B1988274801F03AF8274B4B
:103C20001880274A13780133DBB21370032BE6D8D0
:103C300024490B78040A264A22F82340C0B202EB3A
:103C40008302508001330B70DCE7194B99881868A8
:103C500000F089FD1E4B5B88FF2B01D0002021E086
:103C60000023C72B22DC00BF0133FAE70132052A0B
:103C700017DC00EB400102EB4101154B03EB810324
:103C80005B88FF2BF2D01B029BB2114C34F8211041
:103C90000B4400EB400102EB41010E4C24F81130C3
:103CA000E4E701300328DBDC0022E0E710BD00BFC1
:103CB0009C0100202801002000300140DA03002090
:103CC000D4030020D5030020D6030020D803002011
:103CD00054020020B4020020144B00221A70134B2F
:103CE0001B78042B21D810B50CE000BF0133B3F5CD
:103CF000FA6FFADB0D4A1378013313700B4B1B7804
:103D0000042B11D80A4CA188206800F02EFD094B25
:103D10001988094800F0BDFF084B1880A188206869
:103D200000F021FD0023E2E710BD7047D40300201E
:103D30009C010020FC00002000300140DA0300203C
:103D400070B506460D460F4B9988186800F00DFDBA
:103D5000002407E036F814100B4800F09AFF0B4BD4
:103D600018800134A542F5DC064B9988186800F0EC
:103D7000FAFC002301E000BF0133B3F5FA6FFADB70
:103D800070BD00BF9C01002000300140DA0300201C
:103D9000F8B5012519E0ECB204F11306F6B20C4FA8
:103DA00037F8150001F026FE01463046FDF77CFC91
:103DB0001F34E4B205F10F0337F8130001F01AFEC7
:103DC00001462046FDF770FC01350C2DE3DDF8BD02
:103DD000E402002038B5002412E02946184801F01A
:103DE00057FD184B1860184901F010FF174B186069
:103DF000E0B22D30154B1968C0B2FDF755FC013407
:103E0000012C1BDC04EB44030133114A32F813008C
:103E100001F0F0FD05460B4B1860094901F0F4FF75
:103E20000028DAD00649284601F032FD054B18601B
:103E3000054901F0EBFE054B1860D9E738BD00BF1E
:103E400000608D44E003002000002041E4030020D6
:103E5000B4020020364A1378013BDBB2137003B181
:103E6000704710B5134605221A70FFF735FFFFF7AC
:103E700033FFFFF731FFFFF72FFF02212D48FFF738
:103E80005FFFFFF729FF4D212B48FFF771FD2B4CFA
:103E90004E212046FFF76CFD4E212046FFF768FDBE
:103EA00050212748FFF764FD01212648FFF748FF0E
:103EB000002301E000BF0133632BFBDD012121481A
:103EC000FFF73EFF204C4F212046FFF751FD4F21C9
:103ED0002046FFF74DFD47211C48FFF749FD4821CB
:103EE0001B48FFF745FD49211A48FFF741FD4A21CC
:103EF0001948FFF73DFD4B211848FFF739FD4C21CC
:103F00001748FFF735FD02210A48FFF719FF002384
:103F100001E000BF0133632BFBDD02210548FFF701
:103F20000FFFFFF757FEFFF733FFFFF753FF10BDFB
:103F3000F8000020F0000020180100201C010020E3
:103F400024010020F40000202001002000010020B6
:103F500004010020080100200C01002010010020B5
:103F6000140100208368DB075EBF836843F0010310
:103F7000836070478368DB0742BF836843F00103B7
:103F800083607047034AD2F8083443F40003C2F850
:103F90000834704700200140836800F1080243F0B4
:103FA0000803836013681B07FCD47047836843F0E1
:103FB0000403836070478068C0F38000704708B5D1
:103FC0000246FFF7F3FF1046FFF7F5FF0028FAD18E
:103FD00008BD0022134610B501FA02F403321E2A6E
:103FE00043EA0403F8D10022036101FA02F4033228
:103FF000182A43EA0403F8D1C36010BD836823F094
:10400000010383607047436843F4807343607047E3
:10401000836823F4006383607047836843F002037E
:10402000836070471029F0B510D800246FF03B066C
:104030004FF0010C274623465FFA8CF5A94206D2C1
:10404000013943EA0153C36207634463F0BD062D9F
:104050000AD8157806F13C0E05FA0EF52C430CF142
:10406000010C01320536E7E7073D052D15789BBFAA
:1040700006F11E0E05FA0EF5B5402F4388BF2B43FF
:10408000EDE7836843F4807383607047044B984284
:104090000CBF40F2192040F21A2000F02DBD00BFE5
:1040A000006400402DE9F3410468884624F00204CE
:1040B00004600468964644F0010404604FF6FF74FF
:1040C0009DF820C09DF824109DF828209DF83C60A4
:1040D0009DF840700194019C051D013C019414B1B0
:1040E0004468E407F7D52C68E4076ED50024C46162
:1040F0000468B8F1000F4FD044F0800404600468F5
:10410000BEF1000F4BD044F040040460002B49D0B6
:10411000036843F0200303600368BCF1000F45D03F
:1041200043F0100303600368002942D043F0080302
:1041300003600368002A3FD043F004030360C369AF
:10414000002F3CD043F00043C361C369002E39D037
:1041500043F08043C3610E9B0D99013BC3F30903F8
:104160000B430C99C2690B430B990B431343C36177
:10417000036823F0010303604FF6FF730193019B73
:10418000013B019313B12B68DB07F8D4286800F0DA
:10419000010002B0BDE8F08124F08004AEE724F015
:1041A0004004B2E7036823F02003B4E723F01003D0
:1041B000B8E723F00803BBE723F00403BEE723F0CE
:1041C0000043C1E723F08043C4E70120E1E700009A
:1041D000F0B50125244C9DF81C70D4F8006685408C
:1041E00046F00106C4F80066D4F81CE6EE432EEA59
:1041F000050EC4F81CE641B3D4F80C162943C4F8E4
:104200000C1632B3D4F804262A4300F1006000F6FD
:10421000C840C4F80426C0000360069A059B4360AA
:10422000114BD2B1D3F814262A43C3F8142627B170
:10423000D3F81C261543C3F81C560B4AD2F8003697
:1042400023F00103C2F80036F0BDD4F80C1631405B
:10425000D5E7D4F804263240D7E7D3F81426164021
:10426000C3F81466E3E700BF0060004030B4BDF857
:1042700008409DF8105044EA0344049542EA014383
:104280000294012230BC0021FFF7A2BF1FB50092AB
:1042900001229DF81840CDE901340B461146FFF785
:1042A00097FF04B010BD43690B43436170474369F6
:1042B00023EA0103436170472DE9F041804680689D
:1042C0009DF818E04501079E2AD4D8F8080004019B
:1042D0002AD4D8F80800C00050D54FF4D075022079
:1042E00005EB080422B3C90041F0040145F80810A9
:1042F0001BB1236843F002032360636823F00F03BC
:10430000636062680EF00F03134363600EF1FF33C6
:10431000072B2AD8DFE803F02623201B1815120EDE
:104320004FF4C0750020DBE74FF4C8750120D7E7D4
:104330004905DBE70027F37963F31F67B37963F37C
:104340001747737963F30F27337963F307074FF048
:10435000000CF37863F31F6CB37863F3174C737836
:1043600063F30F2C337863F3070CC4F808C0E760DD
:10437000236843F001032360BDE8F0814FF0FF3074
:10438000FAE721B9C36843F02003C36070470369AB
:1043900043F020030361704719B9C06800F00300BF
:1043A00070470069FAE72DE9F347DDF828A00446D5
:1043B000DDE90E56FFF7F0FF884681464FF4E071C5
:1043C0004FF4D870CDE9000102A901EB880151F842
:1043D000081C6058671810F0040015BF01208AF807
:1043E00000008AF80000605816BF6058400DC008F1
:1043F000186061580B9BC1F34001197079680C9BE0
:10440000090A197079680D9B01F00F01197016B136
:104410007B681B0C3380BE68FB68C6F3072169709C
:10442000C6F30741A970C3F307212E702B71C6F3A1
:1044300007666971C3F30741C3F30763EE70A9719F
:10444000EB711AB141462046FFF79BFF484602B088
:10445000BDE8F087024A936843F001039360704718
:1044600000300240014B186018687047003002406D
:10447000002310B5044A8B4201DB106810BD50F8D0
:10448000234001331460F6E700300240014BB3F8DB
:10449000E007704700F0FF1F14230022013903FBDF
:1044A00001039A60DA601A615A610F234268890039
:1044B00003FA01F11143416070470139890002FAA2
:1044C00001F14160704701390368890002FA01F186
:1044D000194214BF012000207047142301395943A9
:1044E000083010B50C5824F440640C500B5813439A
:1044F0000B5010BD142301395943083010B50C5826
:1045000024F440740C500B5813430B5010BD14236B
:104510000139594308300B5843F080030B50704762
:1045200014230139594308300B5843F020030B5032
:104530000B5823F480430B5070471423013959431F
:1045400008300B5843F010030B5070471423013907
:10455000594308300B5843F001030B5070471423A4
:104560000139594308300B5823F001030B507047B1
:104570001423013903FB01008368DB0758BF026184
:1045800070471423013903FB01008368DB0758BF20
:10459000426170471423013959430C30085880B2E6
:1045A00070471423013959430C300A5070470000FA
:1045B00038B5064DEC68FFF769FFB0F5007F84BFA2
:1045C000E86C044304F0350038BD00BF0020024011
:1045D00038B504460D4600F085F8FFF757FFB0F5F3
:1045E000007F124B17D9124A944214D91A6D42F027
:1045F00001021A65258000F075F8FFF747FFB0F556
:10460000007F0A4B0CD90A4A944209D91A6D22F04C
:1046100001021A6538BD1A6942F001021A61E9E720
:104620001A6922F001021A61F4E700BF002002407B
:10463000FFFF070810B5044600F054F8FFF726FF07
:10464000B0F5007F164B1BD9164A944218D91A6D43
:1046500042F002021A655C651A6D42F040021A656A
:1046600000F040F8FFF712FFB0F5007F0C4B11D9B6
:104670000C4A94420ED91A6D22F002021A6510BD3E
:104680001A6942F002021A615C611A6942F0400242
:104690001A61E5E71A6922F002021A61EFE700BF2A
:1046A00000200240FFFF0708034A136823F00703B6
:1046B00003431360704700BF00200240034B044ACD
:1046C0005A6002F188325A60704700BF00200240F1
:1046D00023016745024A136943F080031361704761
:1046E0000020024008B5FFF763FFC307FBD408BDF5
:1046F00038B505460C4689B2FFF76AFF210CA81CA5
:10470000BDE83840FFF764BF2DE9F04100264FF0C7
:104710000F0E9C46036847684CFA06F4E4071BD565
:10472000072E94BF9846B846B4B24FEA84048ABFB5
:10473000203CA4B2A4B20EFA04F528EA0508A51C90
:10474000ADB202FA05F501FA04F42C4344EA080478
:10475000072E94BF234627460136102EDCD1036076
:104760004760BDE8F081016170470904016170474D
:10477000C36801EA030221EA030141EA024101613F
:10478000704700004AF6AA22014B1A60704700BF2A
:1047900000300040062824D8DFE800F004090E139A
:1047A000181D2000104B1868C0F3406070470E4B76
:1047B0001868C0F3C06070470B4B1868C0F34070B6
:1047C0007047094B1868C0F340407047064B1868A3
:1047D000C0F340007047044B186AF9E7024B586A6F
:1047E000F6E70020704700BF00100240024608B5FF
:1047F0001046FFF7CFFF0028FAD008BD06282AD8B8
:10480000DFE800F0040A0F14191E2400124A13688E
:1048100043F08073136070470F4A136843F080635E
:10482000F8E70D4A136843F08053F3E70A4A136828
:1048300043F48033EEE7084A136843F00103E9E7E5
:10484000054A136A43F0010313627047024A536A30
:1048500043F001035362704700100240034A53685B
:1048600023F0030303435360704700BF001002406E
:10487000034A536823F4701343EA8043536070473C
:1048800000100240034AD36A23F4706343EA002312
:10489000D362704700100240034AD36A23F4704386
:1048A00043EA0033D362704700100240034A536862
:1048B00023F4803343EA0043536070470010024002
:1048C000034A536823F4003343EA4043536070477C
:1048D00000100240024B186A00F40040704700BF0D
:1048E00000100240024A136A43F400431362704707
:1048F0000010024006283BD8DFE800F035353525AA
:10490000350415001B4B1A6A42F001021A621A6A3A
:104910009007FCD51A6A22F440721A621A6A42F4AD
:1049200080721A627047134B5A6A42F001025A624F
:104930005A6A9107FCD51A6A22F440721A621A6AFE
:1049400042F40072EDE70B4B1A6842F480321A60B1
:104950001A689203FCD51A6A22F440721A621A6A23
:1049600042F44072DDE7034A136A23F44073136292
:10497000704700BF00100240034A536823F44043CD
:1049800043EA80335360704700100240034A536883
:1049900023F4605343EAC023536070470010024081
:1049A000034A536823F4E06343EA002353607047EB
:1049B00000100240034A536823F0F00343EA001357
:1049C0005360704700100240044B5A6818B142F41B
:1049D00080025A60704722F48002FAE70010024019
:1049E000034AD36A23F00F030343D362704700BF27
:1049F00000100240034AD36A23F0F00343EA001395
:104A0000D362704700100240044BDA6A18B142F4D6
:104A10008032DA62704722F48032FAE700100240F6
:104A200010B504464378012B0CBF03200420FFF788
:104A3000E5FEFFF7DBFEA078FFF7BCFFE078FFF7AD
:104A4000AFFF2079FFF7A2FF6079FFF795FF207B8A
:104A5000FFF7BAFFA079FFF727FE2078FFF708FFDE
:104A60006078FFF723FFE07901282DD9FFF7B8FF21
:104A7000207A08B1FFF7C8FF607A08B1FFF7BAFFE4
:104A8000A07A30B1FFF7FEFE0120FFF7B7FEFFF777
:104A9000ADFEE07A30B1FFF7FFFE0220FFF7AEFE79
:104AA000FFF7A4FE0020FFF7A9FEFFF79FFE0220FC
:104AB000FFF7D4FE2269064B1A606269054B1A6043
:104AC000A269054B1A6010BDFFF7FAFED0E700BFE0
:104AD0002C01002030010020340100200122430974
:104AE00003F1804303F50433196800F01F0002FA54
:104AF00000F00843186070470122430903F1804326
:104B000003F50433196800F01F0002FA00F00143B6
:104B100019601A6822EA000018607047054BD3F844
:104B200004289206FBD5D3F8042842F01002C3F8FB
:104B30000428704700200040054BD3F8042822F0D9
:104B40001002C3F80428D3F804289206FBD5704756
:104B50000020004038B5044600254FF46770FFF789
:104B6000BDFF40F29B30FFF7B9FF00F097FA2046F7
:104B7000124CFFF7BFFEC4F80058C4F80458FFF702
:104B8000B1FEFFF7CBFF4FF6FF73C4F80858C4F827
:104B90000C58C4F81858C4F81C58C4F82038C4F885
:104BA0002438FFF7C9FFD4F8043823F00803C4F809
:104BB0000438D4F804381B07FBD538BD002000406A
:104BC00008B5FFF7ABFF064B82B2C0F30340C3F852
:104BD0000C28C3F80808BDE80840FFF7ADBF00BFC8
:104BE00000200040034BD3F81808D3F81C3843EAE0
:104BF000004070470020004008B5FFF78FFF054BCD
:104C0000020C80B2C3F81828C3F81C08BDE808409D
:104C1000FFF792BF0020004008B54FF46770FFF720
:104C20005DFF40F29B30FFF759FF00F037FA084B69
:104C3000D3F8042822F00802C3F80428D3F8042883
:104C40001107FBD5D3F804289206FBD508BD00BF99
:104C50000020004038B505464FF467700C46FFF75A
:104C60003DFF40F29B30FFF739FFFFF733FE18B1ED
:104C7000BDE83840FFF7D0BF2846FFF76BFF20465E
:104C8000BDE83840FFF79CBF036843F04003036072
:104C90007047C1608368DB07FCD5C06880B270478D
:104CA000036843F400730360436823F00403436024
:104CB0007047036843F480730360704703299FBF04
:104CC000036823F0030319430160704730B504689B
:104CD000049D04F441542C43039D2C431C43144372
:104CE00043680C4344F0040443F00403436004604D
:104CF000002030BDC3680B43C360704703690B429B
:104D000014BF012000207047C94301617047036848
:104D100043F0800303607047036823F010030360CF
:104D20007047036843F0010303607047036823F092
:104D300001030360704781627047C16270470629B2
:104D40007AD8DFE801F004793379637992008369D6
:104D500023F00303836183698361836923F0700314
:104D60008361072A68D8DFE802F03304090D1115C2
:104D7000191D836943F0100383617047836943F011
:104D80002003F9E7836943F03003F5E7836943F0D3
:104D90004003F1E7836943F05003EDE7836943F093
:104DA0006003E9E7836943F07003E5E7836923F46F
:104DB0004073836183698361836923F4E043836182
:104DC000072A39D8DFE802F004060A0E12161A1E66
:104DD0008369D1E7836943F48053CDE7836943F462
:104DE0000053C9E7836943F44053C5E7836943F43B
:104DF0008043C1E7836943F4A043BDE7836943F47B
:104E0000C043B9E7836943F4E043B5E7C36923F0DE
:104E10000303C361C369C361C36923F07003C36142
:104E2000072A09D8DFE802F03304090D1115191D0E
:104E3000C36943F01003C3617047C36943F02003A3
:104E4000F9E7C36943F03003F5E7C36943F0400372
:104E5000F1E7C36943F05003EDE7C36943F0600332
:104E6000E9E7C36943F07003E5E7C36923F44073DE
:104E7000C361C369C361C36923F4E043C361072A03
:104E8000DAD8DFE802F004060A0E12161A1EC36909
:104E9000D1E7C36943F48053CDE7C36943F40053BA
:104EA000C9E7C36943F44053C5E7C36943F480438A
:104EB000C1E7C36943F4A043BDE7C36943F4C043FA
:104EC000B9E7C36943F4E043B5E706290CD8DFE846
:104ED00001F0040B060B080B0A0042637047826363
:104EE0007047C263704702647047406A704741620E
:104EF00070470000064A074B90421B6804BF064BF0
:104F00001B6803EB5103B3FBF1F38360704700BFF1
:104F1000003801403001002034010020C368082916
:104F20000CBF23F4805343F48053C360704703697C
:104F300023F440530B4303617047C36823F4C063F9
:104F40000B43C3607047C36823F00C030B43C3607B
:104F50007047436923F440730B4343617047C36850
:104F600043F40053C360704738B504460D4600F063
:104F700018F829462046BDE8384000F00AB84369D1
:104F800043F0400343617047436943F0800343614A
:104F90007047C1F30801416070474068C0F30800E2
:104FA000704703681B06FCD5704703680B4214BFAB
:104FB000012000207047FEE77047000038B51A4A0C
:104FC0001A4B1B498B421AD300211A4A93421BD316
:104FD0004FF0E022D2F8143D174C43F40073174D04
:104FE000C2F8143DAC4212D3154C164DAC4212D34C
:104FF000FCF7DCF8144C154DAC4210D338BD52F818
:10500000040B43F8040BDDE743F8041BDEE754F818
:10501000043B9847E6E754F8043B9847E6E754F822
:10502000043B9847E8E700BFF06C00080000002050
:1050300038010020E8030020E86C0008E86C000854
:10504000E86C0008F06C0008F06C0008F06C0008D8
:105050004FF0E023014AC3F80C2DFEE70400FA05E7
:10506000012243099B0003F1604300F01F0003F598
:10507000614302FA00F0186070470000432893BFB4
:1050800000F16040044B00F00F0000F564408CBF5D
:10509000C1540170704700BF14ED00E0024A13686C
:1050A00043F48073136070470070004081F000414A
:1050B00002E000BF83F0004330B54FEA41044FEAFD
:1050C000430594EA050F08BF90EA020F1FBF54EA98
:1050D000000C55EA020C7FEA645C7FEA655C00F034
:1050E000E2804FEA5454D4EB5555B8BF6D420CDD05
:1050F0002C4480EA020281EA030382EA000083EA88
:10510000010180EA020281EA0303362D88BF30BD27
:1051100011F0004F4FEA01314FF4801C4CEA11317D
:1051200002D0404261EB410113F0004F4FEA0333DC
:105130004CEA133302D0524263EB430394EA050F67
:1051400000F0A780A4F10104D5F1200E0DDB02FAD6
:105150000EFC22FA05F2801841F1000103FA0EF26A
:10516000801843FA05F359410EE0A5F120050EF130
:10517000200E012A03FA0EFC28BF4CF0020C43FA61
:1051800005F3C01851EBE37101F0004507D54FF06E
:10519000000EDCF1000C7EEB00006EEB0101B1F5BE
:1051A000801F1BD3B1F5001F0CD349085FEA300004
:1051B0004FEA3C0C04F101044FEA445212F5800F0F
:1051C00080F09A80BCF1004F08BF5FEA500C50F1AC
:1051D000000041EB045141EA050130BD5FEA4C0C8F
:1051E000404141EB0101013C28BFB1F5801FE9D2EC
:1051F00091F0000F04BF01460020B1FA81F308BF0F
:105200002033A3F10B03B3F120020CDA0C3208DDDA
:1052100002F1140CC2F10C0201FA0CF021FA02F1B5
:105220000CE002F11402D8BFC2F1200C01FA02F125
:1052300020FA0CFCDCBF41EA0C019040E41AA2BF4A
:1052400001EB0451294330BD6FEA04041F3C1CDA12
:105250000C340EDC04F11404C4F1200220FA04F032
:1052600001FA02F340EA030021FA04F345EA0301DC
:1052700030BDC4F10C04C4F1200220FA02F001FA9E
:1052800004F340EA0300294630BD21FA04F0294620
:1052900030BD94F0000F83F4801306BF81F48011B9
:1052A0000134013D4EE77FEA645C18BF7FEA655C2C
:1052B00029D094EA050F08BF90EA020F05D054EAFE
:1052C000000C04BF1946104630BD91EA030F1EBF03
:1052D0000021002030BD5FEA545C05D14000494107
:1052E00028BF41F0004130BD14F580043CBF01F5FA
:1052F000801130BD01F0004545F0FE4141F47001E0
:105300004FF0000030BD7FEA645C1ABF19461046BA
:105310007FEA655C1CBF0B46024650EA013406BFBB
:1053200052EA033591EA030F41F4002130BD00BF7A
:1053300090F0000F04BF0021704730B54FF4806437
:1053400004F132044FF000054FF0000150E700BFB8
:1053500090F0000F04BF0021704730B54FF4806417
:1053600004F1320410F0004548BF40424FF0000104
:105370003EE700BF42004FEAE2014FEA31014FEA47
:1053800002701FBF12F07F4393F07F4F81F0605196
:10539000704732F07F4208BF704793F07F4F04BFE1
:1053A00041F40021704730B54FF4607401F00045BE
:1053B00021F000411CE700BF50EA010208BF70471E
:1053C00030B54FF000050AE050EA010208BF70470F
:1053D00030B511F0004502D5404261EB41014FF478
:1053E000806404F132045FEA915C3FF4D8AE4FF080
:1053F00003025FEADC0C18BF03325FEADC0C18BF63
:10540000033202EBDC02C2F1200300FA03FC20FAB3
:1054100002F001FA03FE40EA0E0021FA02F1144400
:10542000BDE600BF70B54FF0FF0C4CF4E06C1CEA19
:1054300011541DBF1CEA135594EA0C0F95EA0C0F8A
:1054400000F0DEF82C4481EA030621EA4C5123EAFD
:105450004C5350EA013518BF52EA033541F480112C
:1054600043F4801338D0A0FB02CE4FF00005E1FBDF
:1054700002E506F00042E0FB03E54FF00006E1FB29
:1054800003569CF0000F18BF4EF0010EA4F1FF046C
:10549000B6F5007F64F5407404D25FEA4E0E6D41AC
:1054A00046EB060642EAC62141EA55514FEAC520BD
:1054B00040EA5E504FEACE2EB4F1FD0C88BFBCF539
:1054C000E06F1ED8BEF1004F08BF5FEA500E50F1EA
:1054D000000041EB045170BD06F0004646EA0101B0
:1054E00040EA020081EA0301B4EB5C04C2BFD4EBE2
:1054F0000C0541EA045170BD41F480114FF0000EDB
:10550000013C00F3AB8014F1360FDEBF002001F048
:10551000004170BDC4F10004203C35DA0C341BDCC2
:1055200004F11404C4F1200500FA05F320FA04F094
:1055300001FA05F240EA020001F0004221F00041C8
:1055400010EBD37021FA04F642EB06015EEA430E3B
:1055500008BF20EAD37070BDC4F10C04C4F120056B
:1055600000FA04F320FA05F001FA04F240EA02001E
:1055700001F0004110EBD37041F100015EEA430EEF
:1055800008BF20EAD37070BDC4F1200500FA05F20F
:105590004EEA020E20FA04F301FA05F243EA02038E
:1055A00021FA04F001F0004121FA04F220EA02009D
:1055B00000EBD3705EEA430E08BF20EAD37070BDE3
:1055C00094F0000F0FD101F00046400041EB0101C3
:1055D00011F4801F08BF013CF7D041EA060195F0A5
:1055E000000F18BF704703F00046520043EB03035F
:1055F00013F4801F08BF013DF7D043EA060370474C
:1056000094EA0C0F0CEA135518BF95EA0C0F0CD056
:1056100050EA410618BF52EA4306D1D181EA03019C
:1056200001F000414FF0000070BD50EA410606BF96
:105630001046194652EA430619D094EA0C0F02D1DB
:1056400050EA013613D195EA0C0F05D152EA033620
:105650001CBF104619460AD181EA030101F000413E
:1056600041F0FE4141F470014FF0000070BD41F087
:10567000FE4141F4780170BD70B54FF0FF0C4CF461
:10568000E06C1CEA11541DBF1CEA135594EA0C0F80
:1056900095EA0C0F00F0A7F8A4EB050481EA030ECD
:1056A00052EA03354FEA013100F088804FEA0333B4
:1056B0004FF0805545EA131343EA12634FEA022282
:1056C00045EA111545EA10654FEA00260EF0004143
:1056D0009D4208BF964244F1FD0404F5407402D295
:1056E0005B084FEA3202B61A65EB03055B084FEA26
:1056F00032024FF480104FF4002CB6EB020E75EB23
:10570000030E22BFB61A754640EA0C005B084FEA4A
:105710003202B6EB020E75EB030E22BFB61A7546C7
:1057200040EA5C005B084FEA3202B6EB020E75EB12
:10573000030E22BFB61A754640EA9C005B084FEA8A
:105740003202B6EB020E75EB030E22BFB61A754697
:1057500040EADC0055EA060E18D04FEA051545EA86
:1057600016754FEA06164FEAC30343EA52734FEA2F
:10577000C2025FEA1C1CC0D111F4801F0BD141EAA8
:1057800000014FF000004FF0004CB6E711F4801F0D
:1057900004BF01430020B4F1FD0C88BFBCF5E06FED
:1057A0003FF6AFAEB5EB030C04BFB6EB020C5FEAFD
:1057B000500C50F1000041EB045170BD0EF0004E52
:1057C0004EEA113114EB5C04C2BFD4EB0C0541EA84
:1057D000045170BD41F480114FF0000E013C90E681
:1057E00045EA060E8DE60CEA135594EA0C0F08BF45
:1057F00095EA0C0F3FF43BAF94EA0C0F0AD150EA44
:1058000001347FF434AF95EA0C0F7FF425AF1046D6
:1058100019462CE795EA0C0F06D152EA03353FF4FE
:10582000FDAE1046194622E750EA410618BF52EA7B
:1058300043067FF4C5AE50EA41047FF40DAF52EA4F
:1058400043057FF4EBAE12E74A0011D212F50012C5
:1058500011D20DD56FF47873B3EB62520ED44FEAC8
:10586000C12343F0004343EA505323FA02F0704748
:105870004FF00000704750EA013002D14FF0FF3086
:1058800070474FF00000704780F0004002E000BF1A
:1058900081F0004142001FBF5FEA410392EA030F1B
:1058A0007FEA226C7FEA236C6AD04FEA1262D2EB65
:1058B0001363C1BFD218414048404140B8BF5B426A
:1058C000192B88BF704710F0004F40F4000020F003
:1058D0007F4018BF404211F0004F41F4000121F019
:1058E0007F4118BF494292EA030F3FD0A2F1010263
:1058F00041FA03FC10EB0C00C3F1200301FA03F1A1
:1059000000F0004302D5494260EB4000B0F5000FC3
:1059100013D3B0F1807F06D340084FEA310102F182
:105920000102FE2A51D2B1F1004F40EBC25008BF34
:1059300020F0010040EA03007047490040EB0000FE
:10594000013A28BFB0F5000FEDD2B0FA80FCACF1FF
:10595000080CB2EB0C0200FA0CF0AABF00EBC2502C
:1059600052421843BCBFD0401843704792F0000F1A
:1059700081F4000106BF80F400000132013BB5E76D
:105980004FEA41037FEA226C18BF7FEA236C21D0E3
:1059900092EA030F04D092F0000F08BF0846704748
:1059A00090EA010F1CBF0020704712F07F4F04D116
:1059B000400028BF40F00040704712F100723CBF29
:1059C00000F50000704700F0004343F0FE4040F453
:1059D000000070477FEA226216BF08467FEA236311
:1059E0000146420206BF5FEA412390EA010F40F4FC
:1059F000800070474FF0000304E000BF10F0004348
:105A000048BF40425FEA000C08BF704743F096432E
:105A100001464FF000001CE050EA010208BF704749
:105A20004FF000030AE000BF50EA010208BF7047D0
:105A300011F0004302D5404261EB41015FEA010CE5
:105A400002BF84460146002043F0B64308BFA3F1DD
:105A50008053A3F50003BCFA8CF2083AA3EBC253BF
:105A600010DB01FA02FC634400FA02FCC2F12002DE
:105A7000BCF1004F20FA02F243EB020008BF20F015
:105A80000100704702F1200201FA02FCC2F120027B
:105A900050EA4C0021FA02F243EB020008BF20EA70
:105AA000DC7070474FF0FF0C1CEAD0521EBF1CEA9E
:105AB000D15392EA0C0F93EA0C0F6FD01A4480EA8C
:105AC000010C400218BF5FEA41211ED04FF0006375
:105AD00043EA501043EA5111A0FB01310CF00040A1
:105AE000B1F5000F3EBF490041EAD3715B0040EAC7
:105AF000010062F17F02FD2A1DD8B3F1004F40EB97
:105B0000C25008BF20F00100704790F0000F0CF069
:105B1000004C08BF49024CEA502040EA51207F3A2D
:105B2000C2BFD2F1FF0340EAC250704740F4000008
:105B30004FF00003013A5DDC12F1190FDCBF00F0F9
:105B400000407047C2F10002410021FA02F1C2F1A7
:105B5000200200FA02FC5FEA310040F1000053EA43
:105B60004C0308BF20EADC70704792F0000F00F091
:105B7000004C02BF400010F4000F013AF9D040EA97
:105B80000C0093F0000F01F0004C02BF490011F42B
:105B9000000F013BF9D041EA0C018FE70CEAD15329
:105BA00092EA0C0F18BF93EA0C0F0AD030F0004CA9
:105BB00018BF31F0004CD8D180EA010000F000405D
:105BC000704790F0000F17BF90F0004F084691F01B
:105BD000000F91F0004F14D092EA0C0F01D1420255
:105BE0000FD193EA0C0F03D14B0218BF084608D11E
:105BF00080EA010000F0004040F0FE4040F4000068
:105C0000704740F0FE4040F4400070474FF0FF0CFA
:105C10001CEAD0521EBF1CEAD15392EA0C0F93EA41
:105C20000C0F69D0A2EB030280EA010C49024FEA93
:105C3000402037D04FF0805343EA111143EA10134C
:105C40000CF000408B4238BF5B0042F17D024FF404
:105C5000000C8B4224BF5B1A40EA0C00B3EB510FDF
:105C600024BFA3EB510340EA5C00B3EB910F24BFC8
:105C7000A3EB910340EA9C00B3EBD10F24BFA3EB4D
:105C8000D10340EADC001B0118BF5FEA1C1CE0D115
:105C9000FD2A3FF650AF8B4240EBC25008BF20F0C8
:105CA000010070470CF0004C4CEA50207F32C2BF1C
:105CB000D2F1FF0340EAC250704740F400004FF0B9
:105CC0000003013A37E792F0000F00F0004C02BFEA
:105CD000400010F4000F013AF9D040EA0C0093F0B4
:105CE000000F01F0004C02BF490011F4000F013B0E
:105CF000F9D041EA0C0195E70CEAD15392EA0C0F76
:105D000008D142027FF47DAF93EA0C0F7FF470AFAD
:105D1000084676E793EA0C0F04D14B023FF44CAFF0
:105D200008466EE730F0004C18BF31F0004CCAD185
:105D300030F000427FF45CAF31F000437FF43CAFC1
:105D40005FE700BF4FF0FF3C06E000BF4FF0010CE3
:105D500002E000BF4FF0010C4DF804CD4FEA4002C5
:105D60004FEA41037FEA226C18BF7FEA236C11D00F
:105D700001B052EA530C18BF90EA010F58BFB2EBC2
:105D8000030088BFC81738BF6FEAE17018BF40F042
:105D9000010070477FEA226C02D15FEA402C05D1F6
:105DA0007FEA236CE4D15FEA412CE1D05DF8040B7B
:105DB000704700BF844608466146FFE70FB5FFF70E
:105DC000C9FF002848BF10F1000F0FBD4DF808EDC6
:105DD000FFF7F4FF0CBF012000205DF808FB00BFB7
:105DE0004DF808EDFFF7EAFF34BF012000205DF811
:105DF00008FB00BF4DF808EDFFF7E0FF94BF01205E
:105E000000205DF808FB00BF4DF808EDFFF7D2FF5A
:105E100094BF012000205DF808FB00BF4DF808ED9D
:105E2000FFF7C8FF34BF012000205DF808FB00BF6A
:105E30004FEA4002B2F1FE4F0FD34FF09E03B3EB97
:105E400012620DD94FEA002343F0004310F0004FD7
:105E500023FA02F018BF404270474FF0000070472D
:105E600012F1610F01D1420205D110F0004008BFCC
:105E70006FF0004070474FF00000704700020406CA
:105E8000424D53007479706500000000303D4D6F45
:105E900064656C5F332C20313D4D6F64656C5F53DE
:105EA000000000006E756D626D62730062616C616E
:105EB0006E636500303D4F66662C20313D4F6E00AD
:105EC0006E6F6D63617000004168000053656E7312
:105ED0006F722073657475700000000069646367F9
:105EE00061696E006469672F410000006964636F37
:105EF00066730000646967006964636D6F646500C0
:105F0000303D4F66662C20313D41646353696E67B6
:105F10006C652C20323D49736143616E00000000C6
:105F20006F706D6F64650000303D4F66662C2031E8
:105F30003D52756E2C20323D52756E42616C616E21
:105F40006365000076657273696F6E00343D302EB4
:105F500030312E4100000000736F63004173000078
:105F60006368617267656C696D00000064697363E2
:105F700068617267656C696D0000000064656C742F
:105F8000615600006D560000756463005600000005
:105F90006964630074656D7000000000C2B0430066
:105FA0007561766700000000756D696E0000000085
:105FB000756D6178000000007530000075310000DB
:105FC000753200007533000075340000753500002F
:105FD000753600007537000075380000753900000F
:105FE0007531300075313100753132007531330053
:105FF0007531340075313500753136007531370033
:106000007531380075313900753230007532310024
:106010007532320075323300753234007532350016
:1060200074300000743100007432000074330000DA
:106030006370756C6F61640025000000805E00086D
:10604000845E00088C5E0008000000002000000054
:106050000000000001000000805E0008A45E00084F
:1060600044690008200000008000000020000000BB
:1060700002000000805E0008AC5E0008B45E00080C
:1060800000000000200000000000000003000000ED
:10609000805E0008C05E0008C85E000800000000C6
:1060A000007D0000800C000004000000CC5E0008B1
:1060B000DC5E0008E45E00080083FFFF007D000056
:1060C0004001000005000000CC5E0008EC5E000806
:1060D000F45E00082000FEFFE0FF01000000000069
:1060E00006000000CC5E0008F85E0008005F0008B3
:1060F0000000000060000000000000000700000039
:1061000000000000205F0008285F00080000000079
:106110000000000000000000D007020000000000A6
:10612000445F00084C5F0008000000000000000011
:1061300000000000D107020000000000585F0008C6
:106140005C5F00080000000000000000000000008C
:10615000D207020000000000605F0008E85E00084F
:10616000000000000000000000000000D307020053
:10617000000000006C5F0008E85E000800000000FE
:106180000000000000000000D40702000000000032
:106190007C5F0008845F0008000000000000000031
:1061A00000000000D507020000000000885F000822
:1061B0008C5F0008000000000000000000000000EC
:1061C000D607020000000000905F0008E85E0008AB
:1061D000000000000000000000000000D7070200DF
:1061E00000000000945F00089C5F000800000000B1
:1061F0000000000000000000D807020000000000BE
:10620000A05F0008845F000800000000000000009C
:1062100000000000D907020000000000A85F00088D
:10622000845F000800000000000000000000000083
:10623000DA07020000000000B05F0008845F000879
:10624000000000000000000000000000DB0702006A
:1062500000000000B85F0008845F00080000000034
:106260000000000000000000DC0702000000000049
:10627000BC5F0008845F0008000000000000000010
:1062800000000000DD07020000000000C05F000801
:10629000845F000800000000000000000000000013
:1062A000DE07020000000000C45F0008845F0008F1
:1062B000000000000000000000000000DF070200F6
:1062C00000000000C85F0008845F000800000000B4
:1062D0000000000000000000E007020000000000D5
:1062E000CC5F0008845F0008000000000000000090
:1062F00000000000E107020000000000D05F00087D
:10630000845F0008000000000000000000000000A2
:10631000E207020000000000D45F0008845F00086C
:10632000000000000000000000000000E307020081
:1063300000000000D85F0008845F00080000000033
:106340000000000000000000E40702000000000060
:10635000DC5F0008845F000800000000000000000F
:1063600000000000E507020000000000E05F0008F8
:10637000845F000800000000000000000000000032
:10638000E607020000000000E45F0008845F0008E8
:10639000000000000000000000000000E70702000D
:1063A00000000000E85F0008845F000800000000B3
:1063B0000000000000000000E807020000000000EC
:1063C000EC5F0008845F000800000000000000008F
:1063D00000000000E907020000000000F05F000874
:1063E000845F0008000000000000000000000000C2
:1063F000EA07020000000000F45F0008845F000864
:10640000000000000000000000000000EB07020098
:1064100000000000F85F0008845F00080000000032
:106420000000000000000000EC0702000000000077
:10643000FC5F0008845F000800000000000000000E
:1064400000000000ED0702000000000000600008EE
:10645000845F000800000000000000000000000051
:10646000EE0702000000000004600008845F0008DE
:10647000000000000000000000000000EF07020024
:106480000000000008600008845F000800000000B1
:106490000000000000000000F00702000000000003
:1064A0000C600008845F000800000000000000008D
:1064B00000000000F107020000000000106000086A
:1064C000845F0008000000000000000000000000E1
:1064D000F30702000000000014600008845F000859
:1064E000000000000000000000000000F4070200AF
:1064F0000000000018600008845F00080000000031
:106500000000000000000000F5070200000000008D
:106510001C600008845F000800000000000000000C
:1065200000000000F60702000000000020600008E4
:106530009C5F000800000000000000000000000058
:10654000F807020000000000246000089C5F0008BB
:10655000000000000000000000000000F907020039
:1065600000000000286000089C5F00080000000098
:106570000000000000000000FA0702000000000018
:106580002C6000089C5F0008000000000000000074
:1065900000000000FB07020000000000306000085F
:1065A000386000080000000000000000000000004B
:1065B000FC070200426175642072617465206E6F91
:1065C00077200000656E61626C6575617274000011
:1065D000666173747561727400000000556E6B6EB5
:1065E0006F776E20636F6D6D616E6420736571757A
:1065F000656E63650D0A00000000000000000000E9
:10660000991100080038014004050000000801400D
:1066100000020000000C0140400000000044004067
:1066200007060000000801400400000000140140BB
:10663000200000000048004002030000000C014060
:1066400000040000001001400004000000000000F1
:1066500000000000291C0008253038583A25303841
:10666000583A253038580D0A00000000446566612C
:10667000756C7473206C6F616465640D0A000000B2
:106680007365740067657400666C616700000000E4
:1066900073747265616D00006A736F6E00000000B4
:1066A00063616E0073617665000000006C6F616469
:1066B0000000000072657365740000006465666127
:1066C000756C74730000000068656C700000000059
:1066D00073657269616C00006572726F727300009D
:1066E00080660008153300088466000885330008BA
:1066F00088660008DD33000890660008C13800088D
:1067000098660008D91C0008A0660008D935000862
:10671000A4660008F5370008AC6600084138000898
:10672000B466000871380008BC660008C11C000887
:10673000C86600088D1C0008D0660008991C000877
:10674000D86600088F1C0008000000000000000050
:10675000286E756C6C29000000000000000000002D
:10676000AB2000085B25755D3A202573202D202580
:10677000730D0A004E6F204572726F72730D0A001E
:1067800053544F500000000044455241544500000E
:106790005741524E00000000303D4E4F4E452C20D8
:1067A000313D544553544552524F522C0000000085
:1067B000544553544552524F52000000446900085A
:1067C00003000000B06700080000000080670008B8
:1067D000886700089067000800000800000050006B
:1067E0001200000000000800000050000900000036
:1067F0000000030000002000090000000000040069
:10680000000020000500000000000500000040001E
:106810000300000000000000000000007D250008CB
:10682000C52500088D2700080000000000000000BA
:106830009911000899110008991100080000000042
:1068400000000000212A0008252A0008000000009E
:1068500000000000991100089911000800000000D4
:1068600000000000452D0008FD2A000863616E202D
:106870000000000072782000747820002573202525
:10688000642025642025642025662025640D0A00E7
:106890004E6F20706172616D657465722076616CF7
:1068A000756520676976656E0D0A00005365742072
:1068B0004F4B0D0A0000000056616C7565206F7526
:1068C00074206F662072616E67650D0A000000001B
:1068D000556E6B6E6F776E20706172616D65746559
:1068E000722025730D0A000025660D0A00000000C5
:1068F000556E6B6E6F776E20706172616D65746539
:10690000723A20272573270D0A0000004E6F20667B
:106910006C616720676976656E0D0A00686964645A
:10692000656E0000556E6B6E6F776E20666C6167EA
:106930000D0A0000466C6167206368616E67652020
:106940004F4B0D0A0000000066616C73650000008B
:1069500074727565000000007B00000025630D0A5D
:10696000202020222573223A207B22756E69742212
:106970003A222573222C226964223A25642C22763D
:10698000616C7565223A25662C0000002263616EF9
:106990006964223A25642C2263616E6F66667365B2
:1069A00074223A25642C2263616E6C656E6774688C
:1069B000223A25642C2263616E6761696E223A2552
:1069C000662C2263616E616464223A25642C22691C
:1069D000737278223A25732C0000000022697370CC
:1069E0006172616D223A66616C73657D0000000022
:1069F000226973706172616D223A747275652C221E
:106A00006D696E696D756D223A25662C226D61780F
:106A1000696D756D223A25662C2264656661756C18
:106A200074223A25662C2263617465676F7279223D
:106A30003A222573222C2269223A25647D00000027
:106A40002C0D0A2020202273657269616C223A2085
:106A50007B22756E6974223A22222C2276616C7533
:106A600065223A2225303858222C226973706172CF
:106A7000616D223A66616C73657D00000D0A7D0DC3
:106A80000A00000073000000416C6C206D65737398
:106A900061676520646566696E6974696F6E7320ED
:106AA000636C65617265640D0A0000004D69737363
:106AB000696E6720617267756D656E740D0A0000FE
:106AC000556E6B6E6F776E20706172616D65746567
:106AD000720D0A00256420656E74726965732072F8
