:020000040800F2
:1010000000500020D9510008D5510008D3510008E4
:10101000D3510008D3510008D3510008000000004C
:10102000000000000000000000000000D551000892
:10103000D551000800000000D5510008D551000826
:10104000D3510008D3510008D3510008D3510008F0
:10105000D3510008D3510008D3510008D3510008E0
:10106000D3510008D3510008D3510008D3510008D0
:10107000D3510008D3510008D3510008D3510008C0
:10108000D3510008D3510008D35100080D2A00089D
:10109000ED290008FD290008D3510008D3510008AC
:1010A000D3510008D3510008D3510008D351000890
:1010B0009D110008D3510008D3510008D3510008F6
:1010C000D3510008D3510008D3510008D351000870
:1010D000D3510008D3510008D3510008D351000860
:1010E000D3510008D3510008D3510008D351000850
:1010F000D3510008D3510008D3510008D351000840
:10110000D3510008D3510008D3510008D35100082F
:10111000D3510008D3510008D3510008D35100081F
:10112000D3510008D3510008D3510008D35100080F
:10113000D3510008D3510008D35100083B2A0008BE
:101140001B2A00082B2A0008D3510008D35100089D
:1011500008B50B4B9988186803F018FC03F020FCC5
:10116000084B186800F060FA04F056FD064904F0D8
:101170005BFE0146312000F0A3FA02F079FF08BDC2
:10118000A80100203C0100200000204108B503F028
:1011900037FE01F0CFF908BDFEE7704708B5024BF6
:1011A000186800F013FA08BD3C01002000B5ADF24C
:1011B000CC6D00F0BBF800F04CF9474C0022214602
:1011C000464801F003F901222146454801F0FEF8A6
:1011D00004234FF400524349434800F040FE434D7E
:1011E00004234FF480522946414800F038FE04237E
:1011F0001A4621463F4800F032FE042308222146C9
:101200003D4800F02CFE0423102221463B4800F00C
:1012100026FE022308222946394800F020FE022338
:1012200010222946374800F01AFE01F04BF800F072
:10123000BFF800F005F901F050F900F015F900F0E1
:1012400041F90DF5D4644FF08041204600F066F975
:101250002D4B1C600DF20455002302222B49284619
:1012600001F00CFB8DAE2946304602F003F9284B05
:101270001D60284D2E600023274A284902A800F04F
:10128000CBFA2A68264B1A600A222649204600F02B
:1012900067F964222449204600F062F904210820FD
:1012A00000F000FA08E00DF1070102F00BFA194B0B
:1012B0001B68012283F8CC2200238DF8073002A896
:1012C00000F0ECFB134B1868D0F8C832002BF3D1B8
:1012D0000028E8D00430E6E700080140BC01002007
:1012E000B801002000100140A8010020000C0140BE
:1012F000A00100208801002090010020980100201A
:1013000078010020800100203C01002000640040A2
:101310003401002038010020FC680008004800402B
:101320000C0200208D1100085111000808B51E485C
:1013300003F084FC4FF0E0231C4AC3F80C2D40F26C
:10134000023003F0D9FC40F2033003F0D5FC4FF437
:10135000417003F0D1FC40F2053003F0CDFC40F2C7
:10136000923003F0C9FC40F20E3003F0C5FC4FF49C
:10137000607003F0C1FC4FF4207003F0BDFC40F23C
:10138000093003F0B9FC40F2862003F0B5FC4FF4BD
:10139000407003F0B1FC40F2993003F0ADFC4FF423
:1013A000437003F0A9FC08BDB46E00080003FA0501
:1013B00030B597B003F078F91E4D0544AD02142204
:1013C000002101A800F045FD1B4B01934FF4005391
:1013D000ADF8083001238DF80A308DF80B30174A2C
:1013E00003920622ADF810208DF8123000238DF8FC
:1013F000133003F03DF9142101A803F047F91590CB
:101400002B6D834201D117B030BD03F065FA284639
:1014100003F01EFA002407E001AB53F8241005EB9B
:10142000840003F073FA0134142CF5D903F060FA48
:10143000E9E700BFFDFF410000100140000C014042
:1014400008B51C2003F01AFFE0211C2003F024FF44
:1014500008BD08B54FF41C71032003F009FD0020FE
:1014600003F0D8FC08BD000070B582B0134C002515
:1014700001954FF4006300932B4602222821204659
:1014800003F032FD0321204603F026FD204603F041
:1014900015FD204603F01BFD094EA0230222032167
:1014A000304603F03FFA402301222946304603F03C
:1014B00039FA204603F0F6FC02B070BD003001405E
:1014C0000008014010B54FF40073022203211048B8
:1014D00003F028FA0F4C1049204603F019FE0821AA
:1014E000204603F029FE0021204603F02EFE0C21A9
:1014F000204603F036FE0021204603F02CFE00219A
:10150000204603F034FE204603F037FE10BD00BF36
:1015100000080140003801409458090038B50546DC
:101520000C460162084603F000FD204603F002FD70
:10153000094B19684909094BA3FB0131C909013954
:10154000204603F006FD4FF6FF71204603F003FD31
:1015500000236B62284638BD30010020C55A7C0A42
:10156000F8B5436A032B00DDF8BD04460E46154668
:10157000006A03F0E9FC636A134F0122F95C206AF8
:1015800003F0EBFC636A0022F95C206A03F0ABFD18
:10159000636A44F8236003F1080105EB850202EB5E
:1015A0008202920024F8112002219940206A03F05F
:1015B000AFFC0021206A03F0A8FD206A03F0BFFC05
:1015C000636A01336362CFE79860000870B505462F
:1015D000002400E001346B6AA34220DD0221A14017
:1015E000286A03F099FC0028F4D0286A03F08BFDE8
:1015F00086B22B6A03EB840304F1080235F812105B
:101600005A6B0A445A6355F824309847286A03F005
:101610007AFD801B04F10C0325F81300DAE71E2184
:10162000286A03F07FFC70BD0146002210460FE0DF
:1016300002F10C0331F813304FF47A7C0CFB03F306
:1016400002F1080C31F81CC093FBFCF31844013282
:101650004B6A9342ECDC704708B5C0EBC0020C4B00
:1016600003EB8203DB688B420FDC1346084A02EB74
:1016700083031B698B4201DAFF2007E0054B43F827
:101680002010FFF78AFD002000E0FF2008BD00BF0A
:101690005862000800000020014B53F820007047FA
:1016A000000000204901024B43F82010704700BFA2
:1016B00000000020014B43F820107047000000207C
:1016C00010B5044608464FF0844104F0F9FA04F0DE
:1016D000BDFC024B43F8240010BD00BF00000020F9
:1016E00070B506460024074D312C09DC3146686888
:1016F00000F00EFB10B101341C35F5E7E0B270BD0F
:101700003320FCE7586200080023064A312B07DC2F
:101710009169814202D001331C32F7E7D8B2704799
:101720003320704758620008C0EBC000014B03EB48
:101730008000704758620008074BC0EBC00203EB03
:101740008202D268C0EBC00003EB80000069101A6F
:1017500018BF0120704700BF5862000838B5002448
:10176000074D05E06969E0B2FFF7A4FF01341C35BD
:10177000312C03DCAB69002BF8D0F3E738BD00BF98
:1017800058620008014B1954704700BF4001002007
:10179000024B1A5C11431954704700BF40010020EE
:1017A000024A135C23EA01031354704740010020EE
:1017B000014B185C704700BF400100200048704793
:1017C000A153010008B52021806803F0FCFC08BD8E
:1017D00008B5806803F0EFFC08BD000038B504468A
:1017E00043680C4D5979284602F0C7FF636804F13D
:1017F00029025979284602F0D2FF6368802259797C
:10180000284602F0DCFF63685979284602F0ACFFF5
:1018100038BD00BF00000240F8B504460D464F49F0
:1018200001604F4901608560037302610121017508
:101830004175817500228261C26180F82020426278
:1018400080F828104749416002E018316160013298
:10185000022A03D861680868A842F6D1424A146097
:10186000002B75D062681069002B74D063689B8A66
:101870000222032103F056F84FF4E131284603F029
:1018800047FC0821284603F057FC4FF40051284636
:1018900003F05BFC0C21284603F063FC0021284682
:1018A00003F059FC0021284603F061FC284603F0B0
:1018B00074FC284603F076FC63682C4E1979304698
:1018C00002F0F8FE63681979304602F044FF63685D
:1018D0002F1D3A461979304602F058FF63680022FE
:1018E0001979304602F014FF6368002219793046F6
:1018F00002F001FF63681979304602F016FF636851
:101900005979304602F0D6FE63683A465979304636
:1019100002F03CFF636800225979304602F0F8FE7D
:10192000636800225979304602F0E5FE6368597910
:10193000304602F0FAFE63685979304602F014FF2F
:101940002046FFF74BFF284603F017FC2046F8BD62
:101950006268906888E763689B8989E71C6800086B
:101960007068000820680008740100200000024030
:1019700038B50D460469437D5BB1216829B128461D
:1019800000F0C6F908B10834F7E723681BB1204618
:1019900038BD0024FBE71C46F9E738B505460C4680
:1019A00003E0A86803F0EEFB013421780029F8D1A8
:1019B00038BD000010B50446084600F015FA00F0E6
:1019C000FAF9237D83420DD000236375237B0BB38B
:1019D000626810690BB363689B8A0122002102F0E0
:1019E000A1FF10BD01236375237B6BB16268106991
:1019F0006BB163689B8A0222032102F093FF0849BE
:101A00002046FFF7CAFFECE762689068F0E763687A
:101A10009B89F0E762689068DCE763689B89DCE794
:101A20006C6B000830B585B00446084600F0DCF960
:101A30000378302B11D0322B0DD04FF46125637D0C
:101A400073B92946A06803F063FB0021A06803F086
:101A50007CFB05B030BD0D4DF1E74FF4E135EEE70D
:101A60000A22294601A800F079F909492046FFF722
:101A700094FF08492046FFF790FF01A92046FFF791
:101A80008CFF05492046FFF788FFDAE71055220052
:101A90006C6B0008D0670008386E0008F8B5044683
:101AA00043685979494802F083FE0646C0F1800533
:101AB00058B92046FFF792FE07E05A1CE261234422
:101AC00093F82910A06803F05DFBE369AB42F4DBF7
:101AD000002D1FDDC6F17F06264496F829300A2B1B
:101AE00013D00D2B11D094F82930212B12D1A369DA
:101AF00083B12046FFF772FE0023E361A3695B68B0
:101B000004F2A9112046984704E0012D03DC204689
:101B1000FFF764FEF8BD6319002283F82920E26113
:101B200004F129072021384600F010F90646037811
:101B30001BBB0A21384600F009F90646002384F849
:101B4000A9313378FBB100233370A36120493846B3
:101B500000F0DEF80646E0B904F2A9112046FFF7CE
:101B600029FFA36943B3A06803F029FBA3695B685D
:101B700004F2A91120469847C9E7411C04F2A910B4
:101B800000F0D4F8DDE70D21384600F0DFF8064616
:101B9000D9E71049384600F0BBF8064628B904F2E8
:101BA000A9112046FFF73EFFDBE739462046FFF745
:101BB000DFFEA0612E46D4E7012EA8DD637D002B59
:101BC000A5D005492046FFF7E8FEA0E70000024047
:101BD000E0670008EC670008F867000870B5044685
:101BE0000E466368022219791A4802F07AFD18B984
:101BF00094F82830002BF4D06368164D19792846E4
:101C000002F0BBFD6368B2B21979284602F0D7FD35
:101C1000636894F82020D201A83222440132197955
:101C2000284602F0BCFD636802221979284602F0BA
:101C300052FD63681979284602F096FD94F8203029
:101C4000B3FA83F35B0984F82030002384F828304A
:101C500070BD00BF0000024010B50446837D73B123
:101C60000A2910D0436A7F2B0DD090F8202000EB7A
:101C7000C2121A4482F8A9100133436210BD806871
:101C800003F080FAFAE794F82030626A04EBC31399
:101C9000134483F8A910511C2046FFF79FFF00232F
:101CA0006362EBE708B5044B1B681A681268C1B29F
:101CB0001846904708BD00BF74010020704708B562
:101CC00000F054FC08BD000000B583B00649D1F80F
:101CD000F027D1F8EC37D1F8E8170091034900F06C
:101CE000CFFA03B05DF804FB00F0FF1F7468000832
:101CF00010B50446FFF732FD0249204600F0C0FA55
:101D000010BD00BF8868000808B501F0DBFC08BD05
:101D1000431E013913F8010F11F8012F10B10AB158
:101D20009042F7D0801A18BF01207047013911F88E
:101D3000013F0BB90370704700F8013BF7E703461A
:101D400000201A5C02B970470130FAE703461846D2
:101D500013F8012B0AB18A42F9D1704700290346D2
:101D6000F0B520DA2D2003F8010B012049421D4671
:101D7000C71A91FBF2FC02FB1C11303129702C4672
:101D8000BCF1000105F101051E4605EB0700F0DC82
:101D900000232B70B4420BD93378227806F8012B3C
:101DA00004F80139F6E704D13022417002700120B5
:101DB000F0BD0020DBE730B503782D2B11D14FF0BB
:101DC000FF34013000210A25431E01E005FB0121FB
:101DD00013F8012F303AD0B20928F7D904FB01F0EB
:101DE00030BD0124EEE7000010B5134C0278014627
:101DF000A2F10A03DBB2162B00F1010017D9A2B140
:101E00000846FFF79CFF0C4C01380844814202460B
:101E100009D2137801380A3BDBB2162B03D824FA17
:101E200003F3DB07F2D400235370084610BD24FAF5
:101E300003F3DA07DAD4E3E709004000002310B522
:101E4000934200D110BD51F8234040F823400133A4
:101E5000F6E7013A00D2704740F8041BF9E7F8B5FD
:101E60000C46154601608280013B042B04D8DFE854
:101E700003F017070B0F1300002302271E4612E082
:101E8000002301271E460EE000231F461E460AE0DF
:101E900000231F46032606E001231F46032602E017
:101EA00001230227002633B92B463A463146204605
:101EB00002F038FDF8BD2946204602F062FDF3E746
:101EC000012800D070474FF6FF739942FAD1024BB8
:101ED0004FF400421A80F5E7B001002008B54FF634
:101EE000FF710120FFF7ECFF08BD70B50C1EB4BFF9
:101EF0004FF0FF3301235C430133064608BF2D2317
:101F00004FF0640208BF06F8013B611104F01F04A2
:101F10000546544330460A22FFF720FF2E22641163
:101F2000092C3254D8BF302206EB0003D8BF5A70B8
:101F300021464FF00A02CCBF581C981CFFF70EFF39
:101F4000284670BDF0B503782D2B17D14FF0FF3622
:101F5000013000244FF00A0C02E018460CFB045438
:101F6000034613F8012BA2F13005EFB2092FF4D983
:101F7000AAB98C40224406FB02F0F0BD0126E8E736
:101F80008B4003EB650393FBF5F30CFB05F51A445B
:101F900010F8013F303BDFB2092FF1D9E9E70A25FC
:101FA0000022AC46F4E72DE9F04105460F46161E27
:101FB00012DD0A46002101E00131013210780028CB
:101FC000FAD1B14206DA761A13F0020F13D14FF0AC
:101FD000200803E00026F7E74FF0200813F0010483
:101FE0000CD1002E12DD2B681B684146284698470D
:101FF0000134013EF5E74FF03008EFE7002405E03B
:102000002B681B6828469847013401373978002926
:10201000F6D106E02B681B684146284698470134F4
:10202000013E002EF6DC2046BDE8F0812DE9F041AE
:1020300084B00746DDF828800C9859B11E460C463E
:1020400013B10A2A13D0002600238DF80D300DF1AC
:102050000D0518E030238DF8003000238DF8013095
:102060000B9B424669463846FFF79DFF32E0002948
:1020700001DB0026E8E74C420126E5E7303105F8B0
:10208000011DB4FBF2F44CB1B4FBF2F102FB1141BF
:102090000929F3DDA0F13A031944EFE79EB1B8F145
:1020A000000F0BD00B9B13F0020F07D03B681B688F
:1020B0002D213846984708F1FF3804E02D2305F814
:1020C000013C013D00260B9B424629463846FFF75E
:1020D0006AFF304404B0BDE8F08108B50846FFF758
:1020E000E1FD08BD70B584B0044615461E4668463D
:1020F000FFF7FBFE33462A4669462046FFF753FFAB
:1021000004B070BD70B588B006460C460592002537
:1021100087E0A21C012391E000222178A1F1300C7C
:102120005FFA8CFCBCF1090F06D802EB8202303951
:1021300001EB42020134F0E773291AD0642923D05D
:10214000782930D058293DD075294AD0662957D0F2
:10215000632965D10599081D059009688DF81C1043
:1021600000218DF81D1007A93046FFF71CFF05441C
:1021700056E00599081D0590096801B935493046B2
:10218000FFF711FF05444BE00599081D059009680C
:10219000612002900193009201230A223046FFF74A
:1021A00045FF05443CE00599081D0590096861203C
:1021B000029001930092002310223046FFF736FF71
:1021C00005442DE00599081D0590096841200290FD
:1021D00001930092002310223046FFF727FF0544A9
:1021E0001EE00599081D0590096861200290019381
:1021F000009200230A223046FFF718FF05440FE043
:102200000599081D059009683046FFF76BFF0544E6
:1022100006E0144633681B6821783046984701353C
:10222000013423789BB1252BF4D1621C637873B100
:10223000252BEED02D2B3FF46CAF002314462278D3
:10224000302A7FF469AF013443F00203F7E72846F0
:1022500008B070BD6C6900080FB400B583B004AA63
:1022600052F8041B054B0193009201A8FFF74AFFA7
:1022700003B05DF804EB04B0704700BF7C69000850
:102280000EB400B582B003AA52F8041B0192FFF706
:1022900039FF02B05DF804EB03B07047012800D0AD
:1022A00070474FF6FF739942FAD1034B034A13600C
:1022B0000233034A1360F3E7C0010020BC01002091
:1022C000B801002038B52A4C204601F0A5FF204671
:1022D00001F0A7FF204601F0AEFF204601F0A6FF67
:1022E0000121204601F083FF204601F049FF002331
:1022F00000E001331F4A9342FBDD1D4D284601F0EB
:1023000059FF284601F069FF1B4A0221284601F0C7
:1023100097FF284601F0C3FF184C194A01212046B7
:1023200002F034FA174A0121204602F038FA4FF43D
:1023300080720121204602F0EBF94FF48062012106
:10234000204602F0D8F918220121204602F037FA7F
:102350000121204602F0E9F90121204602F0EEF9C0
:102360000121204602F000FA284601F011FF38BD95
:10237000002401407F380100B40100200000024029
:102380004C240140C001002008B50F4B98420FD0EB
:1023900003F58063984211D0A3F50063984203D0FF
:1023A00001F0FEFE102008BD0729F9DCC8B2FAE7EB
:1023B0000129F5DCC9B20831C8B2F4E70529EFDC20
:1023C000C9B20A31C8B2EEE7000C014070B504464C
:1023D0000D461646012393409BB200221146284623
:1023E00002F0A0FA2468054BE41A6410314628462E
:1023F000FFF7CAFFA4B2024B185570BDC001002000
:10240000B401002008B54FF6FF710120FFF746FF29
:1024100008BD000008B502F047F9024B03449802DA
:1024200008BD00BFFFFF41002DE9F043ADF2044DB0
:10243000FFF7F0FF0546024600234FF0FF34FF2B65
:1024400004DC52F8041B0C400133F8E702F010F9E9
:102450004FF480724FF0FF316846FFF7FAFC002618
:10246000F7B23846FFF768F9B8B17E2E15D838466E
:10247000FFF75AF980463846FFF79AF90DEBC6097F
:1024800089F80300D8F818302DF836303846FFF7B1
:1024900003F9C9F804000136E2E7FE21684602F0BC
:1024A000F5F8FE9002F018FAB4F1FF3F01D10024D4
:1024B0000AE0284602F0CCF9F9E75DF8241005EBB4
:1024C000840002F023FA0134FF2CF6D902F010FA4E
:1024D000FE980DF2044DBDE8F083F8B5FFF79AFFC2
:1024E000064602F0C5F8FE21304602F0CFF8D6F8D5
:1024F000F833834219D1002400E001347E2C17D830
:1025000036F83400FFF700F905463328F5D036F8E1
:102510003430002BF1D006EBC4077968FFF7CAF816
:10252000F9782846FFF72EF9E7E74FF0FF3000E093
:102530000020F8BD014B1860704700BFF00100207B
:1025400008B5074B03EBC10292F804C053F83130D1
:10255000044A52F82C2001460348FFF77DFE08BDCF
:10256000D8690008E86900088069000810B50B4BBD
:102570005B6873B10024032C0ED8084B03EBC40333
:10258000586848B1054B13F83410FFF7D9FF0134F0
:10259000F1E70348FFF760FE10BD00BFC800002050
:1025A0009069000810B58AB00F4B01EB410203EBB4
:1025B000820453F82220646801EB410103EB81019E
:1025C0008B68D0F898010021089107910693059433
:1025D000049203910291019100910B46012201F0B6
:1025E0006FFE0AB010BD00BFF4690008F0B583B0FB
:1025F00004460D4616461F460121D0F8980101F009
:1026000064FF019600970023B5F5006F34BF0022E8
:1026100001222946D4F8980101F05CFF002805DB6F
:10262000D4F89431002B14DC03B0F0BDD4F894310D
:10263000132BF5DC5A1D04EB0212556097603168CC
:1026400004EB0312D165716811660133C4F894314B
:10265000E6E70121D4F8980101F033FFE4E7000038
:10266000012801DD00207047014B53F8200070471E
:10267000F401002030B58BB004460D4607E006AAF1
:102680000999204600F037FA02F0BAFB6064002393
:10269000059306AB04930DF12103039308AB02935A
:1026A0000DF1220301930DF12303009309AB0122E5
:1026B000E9B2D4F8980101F084FF0028DFD10BB013
:1026C00030BD30B583B0044600F1540504E0D4F8C1
:1026D0009431013BC4F89431D4F89431002B17DDC8
:1026E00003F18053013B1A0105EB0313A95803F1D1
:1026F000080201921B7900930023B1F5006F34BFEB
:1027000000220122D4F8980101F0E4FE0028DEDA6C
:10271000D4F894310BB103B030BD0121D4F8980145
:1027200001F0D3FEF7E7F0B585B00E4615461C461E
:102730001068B3F800C05A889B88E7885B019BB299
:10274000520192B24FEA4C1C1FFA8CF14FF0010C6F
:10275000CDF808C000EA0C0CCDF804C07F01BFB270
:10276000009701F091FE002333602A6801322A604D
:10277000E380A3806380238005B0F0BD70B582B094
:102780000E4615461C4610681968C9005A68D200E2
:1027900001230093034042F0040241F0040101F0E0
:1027A00083FE002333602A6801322A60636023605D
:1027B00002B070BD30B589B005460023069307937B
:1027C0000493059303930293D0F898212A4B9A42DD
:1027D0000AD0A3F58063D3F8003AC3F3052301932D
:1027E0000024C2F81C4210E00023F8E7039A08A96D
:1027F00001EB420121F8083C01320392039B042BB8
:1028000015D0029B022B19D001342B6CA3421CDD86
:1028100005EB44039B88B3F5006FE7D3029A08A940
:1028200001EB820141F8103C01320292E6E706AB6F
:1028300001AA03A92846FFF776FFE2E704AB01AA45
:1028400002A92846FFF79AFFDEE7039B002B04DC72
:10285000029B002B08DC09B030BD06AB01AA03A91E
:102860002846FFF760FFF3E704AB01AA02A9284658
:10287000FFF784FFEFE700BF00640040F8B50446AF
:102880000D4616461F4600F0E3F8534B2360002325
:10289000C4F89431C4F89851504B9D421AD003F5B6
:1028A00080639D4258D0D4F8980101F0FDFC314678
:1028B0002046FFF777FE2046FFF77CFF0221D4F881
:1028C000980101F0FEFD1021D4F8980101F0F9FD06
:1028D0002046F8BD5FB3424D4FF4807302220021C1
:1028E000284602F01FF84FF48071284602F049F89C
:1028F0004FF4007302220321284602F013F814203B
:1029000002F0BCFCF021142002F0C6FC152002F0FD
:10291000B5FCF021152002F0BFFC132002F0AEFC44
:10292000F021132002F0B8FC2E4B1C60BBE72E4DAB
:102930004FF4006302220021284601F0F3FF4FF418
:102940000061284602F01DF84FF480530222032153
:10295000284601F0E7FFD2E747B3214D20230222AA
:102960000021284601F0DEFF2021284602F009F868
:10297000402302220321284601F0D4FF402002F028
:102980007DFCF021402002F087FC412002F076FC23
:10299000F021412002F080FC3F2002F06FFCF0218A
:1029A0003F2002F079FC0F4B5C607CE70C4D4FF44C
:1029B000805302220021284601F0B4FF4FF48051D9
:1029C000284601F0DEFF4FF400530222032128467F
:1029D00001F0A8FFD2E700BF386A00080064004099
:1029E000000C0140F40100200008014008B500205F
:1029F000FFF736FE0021FFF73DFE08BD08B50020B9
:102A0000FFF72EFE0121FFF735FE08BD08B50020B7
:102A1000FFF726FEFFF755FE08BD08B50120FFF7BA
:102A20001FFE0021FFF726FE08BD08B50120FFF7B5
:102A300017FE0121FFF71EFE08BD08B50120FFF7B4
:102A40000FFEFFF73EFE08BD0020704770470000F4
:102A5000074B036000230364836406E003F1120262
:102A600000EB8202034951600133012BF6DD704710
:102A70004C6A0008E8000020836C012B01DD002077
:102A8000704703F1120200EB82025160013383644C
:102A90000120704710B5046C1D2C15DC002300E0EC
:102AA00001339C4206DD00EB430292888A42F7D153
:102AB00000200AE000EB44039980013404640368B9
:102AC0009B689847012000E0002010BD38B50546FE
:102AD0000024046403689B68984708E004F112032B
:102AE00005EB8303586803685B6898470134AB6C57
:102AF000A342F3DC38BDF8B505460F461646002460
:102B000000E00134AB6CA3420BDD04F1120305EBD2
:102B10008303586803681B68324639469847002883
:102B2000EFD0F8BD094B1B78DBB2062BFAD8074A69
:102B300013785FFA83FC0133DBB21370044B03F8A4
:102B40000C104FF0FF33C0F8C83270470702002066
:102B500000020020A0F10400FFF7E4BF70B50546B5
:102B600090F8C41201F5C0618068FFF793FF05F18A
:102B70003406344604E034F8041BA868FFF78AFFE3
:102B8000A31B242B02DCA378322BF4D170BD2DE9DA
:102B9000F041099F00243C7000F10C06002C3FD14D
:102BA0003546AC1B242C35DCAC78322C32D004EB0F
:102BB000440C4FEA8C0C0CF1580C84440CF1040EBC
:102BC00008E00CEB4C0C4FEA8C0C0CF1580C8444D4
:102BD0000CF1040E9EF809C0BCF1FF0F18D0BEF82E
:102BE00004808CB2A045ECD1298811609EF80720A2
:102BF0001A709EF80820069B1A70DEF80020079BCA
:102C00001A609EF90620089B1A700120BDE8F08129
:102C10000435C6E73C7801253D7000F13406BDE778
:102C20000020F3E72DE9F04385B00646884600F121
:102C30000C0900273B4627E0237AE27920790297A6
:102C400094F906100191216800912988C047647A9F
:102C500004EB4404A400583434440434637AFF2B56
:102C6000EAD10435A5EB0903242B09DCAB78322B20
:102C700006D003EB4304A400583434440434EDE795
:102C800006F134093B4601270BB94D46EAE705B08A
:102C9000BDE8F0830023092B07DC01EB83024FF032
:102CA000320C82F802C00133F5E7002307E003EBA2
:102CB000430200EB8202FF2182F865100133322BC0
:102CC000F5DD704710B5044600F10C01FFF7E2FF97
:102CD00004F134012046FFF7DDFFA068FFF7F6FEA0
:102CE00010BD70B58E461AE08EF802309CF809309F
:102CF00003EB43039B0058330344664603F1040C83
:102D00009CF80930FF2B08D0BCF8045094B2A542BF
:102D1000ECD1002EE8D07372E8E70EF1040EAEEBB2
:102D20000103242B0EDC9EF80230322B0AD003EB79
:102D3000430C4FEA8C0C0CF1580C84440CF1040C3D
:102D40000026DDE7002070BD70B504460D460A463A
:102D500000F10C01FFF7C5FF06462A4604F13401D5
:102D60002046FFF7BEFF304470BD2DE9F041884694
:102D700015461F46002426460AE0286801F080FC1C
:102D8000064655F8041B08EB840001F0BFFD013432
:102D9000BC42F2DB3046BDE8F081084600E004307A
:102DA000431A242B06DC8378322B05D00388934208
:102DB000F5D102E000207047002070472DE9F8436C
:102DC0009DF820709DF82480B3F1005F62D2044624
:102DD0000D46164699463F2F5FD8B8F1200F5FD8B1
:102DE0001A46FFF7DAFF844608B1002111E00021FE
:102DF000092907DC05EB81039A78322A01D00131D9
:102E0000F6E79C46BCF1000F4ED0ACF80090ECE722
:102E10000131312907DC01EB410304EB830393F813
:102E20006530FF2BF4D1322941D09CF802300022CA
:102E30000BE003EB4302920058322244043203EBCE
:102E4000430304EB830393F86530322BF1D101EB9C
:102E5000410004EB8004A4F860600A9BE3659DF9DF
:102E60002C3084F8623084F8637084F864803223F4
:102E700084F865305AB151722B4600205A1B242A1F
:102E800010DC9A78322A0DD001300433F6E78CF842
:102E90000210F1E74FF0FF3004E06FF0010001E0B5
:102EA0006FF00200BDE8F8836FF00300FAE76FF0FF
:102EB0000400F7E710B584B09DF920400394079C07
:102EC00002949DF818400194009313460A4600F1BD
:102ED0000C01FFF773FF04B010BD10B584B00024DF
:102EE0000394079C02949DF81840019400931346A4
:102EF0000A4600F10C01FFF761FF04B010BD70B588
:102F000084B0044615469DF928200392099A02923E
:102F10009DF82020019200932B460A4600F13401CF
:102F2000FFF74CFF06462946A068FFF7B3FD304681
:102F300004B070BD10B584B000240294079C0194C5
:102F40009DF818400094FFF7DAFF04B010BD0000B0
:102F500008B501F0A9FB024B0344980208BD00BF6D
:102F6000FEFF4100F8B505460F460E460FE02079FA
:102F7000FEF7DAFB8369A380647A04EB4404A400BF
:102F800058342C440434637AFF2BF0D10436F31BFD
:102F9000242B09DCB378322B06D003EB4304A400C6
:102FA00058342C440434EEE7F8BDF8B505460F4616
:102FB0000E460EE0A088FEF7A7FBA080647A04EB23
:102FC0004404A40058342C440434637AFF2BF1D118
:102FD0000436F31B242B09DCB378322B06D003EB29
:102FE0004304A40058342C440434EEE7F8BD000038
:102FF000F0B583B00546FFF7ABFF064602462A4B05
:103000000121197000234FF0FF3403E052F8041B34
:103010000C400133FF2BF9DD01F02AFB01F05CFCD1
:10302000022001F04FFCB4F1FF3F38D105F10C074D
:1030300039462846FFF796FF05F134042146284615
:10304000FFF790FF0A233A4631462846FFF78DFEE8
:103050000A23224606F128012846FFF786FE019042
:10306000962305F15C0206F150012846FFF77DFE2C
:103070000190012301AA06F52D712846FFF775FE80
:1030800001F036FC39462846FFF78FFF21462846D7
:10309000FFF78BFF044B00221A7003B0F0BD3046DF
:1030A00001F0D6FBC2E700BFFC01002010B50C46C2
:1030B000B1F80130B3F5A04F08D045F201029342B8
:1030C0002DD045F2020293423DD010BD0A78402A2D
:1030D000F3D143230B70CB78032B16D8DFE803F032
:1030E00002070C11294BD3F8E8374B60EDE7274B6B
:1030F000D3F8EC374B60E8E7244BD3F8F0374B605C
:10310000E3E7FEF75BFB6060DFE780230B700023E3
:103110000B714B7102238B710623CB71D5E723789A
:10312000402BD2D14FF0FF33237163710023A37181
:10313000E37141222270164A137080F8CC32E37892
:10314000C0F8C832C1E72378232BBED16023237097
:10315000E378012B11D0022B15D04BB180232370C3
:103160000023237163710223A3710623E371ACE78B
:10317000FFF73EFFFFF758F9A7E7FFF7AEF9322058
:10318000FEF70BF8A1E702F071F800BF00F0FF1F97
:10319000070200202DE9F04383B005460C460B786A
:1031A00003F06002602A31D0B1F80120B2F5005F6F
:1031B00060D002F47F41B1F5045F5BD0A2F54051CD
:1031C00089B2B1F5C05F80F0A580E678312E00F2BB
:1031D000A180232B41D163684FEA1328180C12F405
:1031E000804F7CD0DFB2C2F30A0902F015FD0190D6
:1031F0005FFA88F300933B464A4631462846FFF77C
:1032000099FE00287BDB6023237026E003F0100387
:103210000B70434A1178507841EA0021A4F801105C
:103220009178E170D2F80320626095F8CC224AB11F
:1032300043F0010323703B4A1278C2F1070243EACC
:1032400042032370002303E0354A0021D1540133A7
:10325000062BF9D9334B00221A70A86895F8C412CE
:1032600003685D680823224601F5B061A84703B0F2
:10327000BDE8F083E07802F47F43B3F5045F0CD03F
:10328000312822D82378232B0DD0402BE5D1FEF70F
:1032900003FA606043232370DFE7120292B2104406
:1032A000FEF732FAECE76168FEF7D6F910B9602351
:1032B0002370D2E7802323703023237100236371AE
:1032C0000923A3710623E371C7E78023237000233A
:1032D000237163710223A3710623E371BDE7DFB29B
:1032E000C2F30A0902F098FC01905FFA88F3009398
:1032F0003B464A4631462846FFF7EFFD81E78023EB
:10330000237030232371002363710923A3710623E3
:10331000E371A2E721462846FFF7C8FE9DE700BFFC
:1033200000020020070200202DE9F0410546164664
:1033300090F8C43203F5C0638B4208D0334B1B783E
:1033400003F0FF0443B100242046BDE8F08111469C
:10335000FFF720FF0124F7E70A4600F13401FFF7E9
:103360001CFD0028F0D0837803EB4304A4005834FC
:103370002C44043416E0336823FA00F0227A012347
:103380009340013B184002F043FC07461CE03946DD
:103390002079FEF795F9647A04EB4404A4005834CC
:1033A0002C440434637AFF2B2ED0E0791F28E2D915
:1033B0007368203823FA00F0227A01239340013BFE
:1033C000184002F025FC074694F9060002F024FCA0
:1033D000394602F06DFB0146206802F071FC074699
:1033E0002079FEF7A9F90028D1D0B4F804804FF075
:1033F0008441384602F064FC02F028FE01465FFA80
:1034000088F0FEF729F9C6E701249DE7FC010020BA
:10341000F8B50546FFF79CFD0446D0F8B46201F00C
:1034200027F9AA21204601F031F9864201D0002077
:10343000F8BD05F10C070A2221463846FEF7FEFCCE
:1034400005F134060A2204F128013046FEF7F6FCA5
:10345000962204F1500105F15C00FEF7EFFC3946BD
:103460002846FFF7A2FD31462846FFF79EFD0120C2
:10347000DEE7000010B504460846144B2360144BE9
:103480006360144B03F1080222601C336360A16087
:10349000012384F8C4324FF0FF32C4F8C82284F804
:1034A000CC322146FFF7E8FA04F10C012046FFF781
:1034B000F1FB04F134012046FFF7ECFB2046FFF757
:1034C000A7FF2046FFF74AFB204610BD706A0008A0
:1034D0001C680008786A00082DE9F04184B00C46A9
:1034E00015461E469DF83070FEF71EF9D0F8048090
:1034F0001449154B1868FEF7C3FEE7B11349124B88
:103500001868FEF7BDFE4FF084410A9802F0D8FB20
:103510000D4B1F689DF92C30039302F097FD02902C
:10352000019600952346424609493846FEF7A8FE13
:1035300004B0BDE8F0810749034B1868FEF7A0FE10
:10354000E1E700BF986A000808020020A06A0008AE
:10355000A86A0008A46A000870B504460846FEF789
:1035600043FC05462021FEF7F1FB0378A3B10023BD
:1035700000F8013B0521FEF7E5FC06462846FEF76C
:10358000AFF8332812D03146FEF766F848B90A4939
:103590002046FEF775FE03E008492046FEF770FE60
:1035A00070BD07492046FEF76BFEF9E72A4605493C
:1035B0002046FEF765FEF3E7D86A0008BC6A0008FB
:1035C000E46A0008FC6A0008F8B507460846FEF7FA
:1035D0000BFC05460BE0FEF75FF802460E49384645
:1035E000FEF74EFE254605F8016B2C2E12D12C213C
:1035F0002846FEF7ABFB04460678002303702846F6
:10360000FEF76EF83328E6D12A4604493846FEF71D
:1036100037FEE7E7F8BD00BF146B00081C6B00081D
:103620002DE9F04107460846FEF7DEFB80462021E3
:10363000FEF78CFB03789BB104460646002306F890
:10364000013B4046FEF74CF80546332829D0637805
:10365000212B0AD07E2B08D02F2B06D0002406E089
:1036600013493846FEF70CFE0FE0A61C0124314634
:103670001048FEF74DFB50B974B101212846FEF702
:103680008FF80D493846FEF7FBFDBDE8F0810B4988
:103690003846FEF7F5FDF8E701212846FEF778F8F1
:1036A000EFE7424606493846FEF7EAFDEDE700BF80
:1036B000386B0008486B0008606B0008506B00080E
:1036C000FC6A00082DE9F04F8BB007460846FEF76C
:1036D0008BFB0378059344493846FEF7D1FD00265D
:1036E0004FF020081EE0414A039202930190CDF86A
:1036F00000A04B4642463E493846FEF7C1FD2846EB
:10370000FEF71AF800285AD0E26823696169206838
:1037100002960190009137493846FEF7B1FD4FF00F
:103720002C080136312E51D8F5B22846FDF7FCFFA2
:1037300004462846FEF73CF810F0010F02D0059B26
:10374000682BEED1D4F80490D4F808A0D4F818B0BF
:103750002846FDF7A1FF0290CDF804B0CDF800A0F7
:103760004B46424624493846FEF78AFD0DF11F03B9
:1037700003930DF11E03029309AB01930DF11D0399
:10378000009307AB08AA29461C480068FFF7FFF919
:103790000028B4D0DDF820809DF81C909DF81DA075
:1037A0004FF08441099802F08BFA02F04FFC9DF92A
:1037B0001E309DF81F20002A95D0114A94E7114928
:1037C0003846FEF75DFD4FF02C08AAE70E4BD3F804
:1037D000F0270E493846FEF753FD0D493846FEF7EF
:1037E0004FFD0BB0BDE8F08F846B0008746B0008D0
:1037F000B86B0008086C0008886B00080C020020F9
:103800007C6B0008586C000800F0FF1F6C6C00080F
:10381000A86C00082DE9F0478AB004460023059300
:1038200006930793089309930846FEF7DDFA057897
:10383000702D39D0632D45D02021FEF787FA03780B
:10384000002B48D0FEF7D0FA07462021FEF77EFA7B
:10385000064603780BB9642D44D1002306F8013BDA
:103860003846FDF73DFF81463046FEF7BDFA064675
:10387000B9F1330F3BD0642D3ED04FF000084FF02C
:103880007E5AB8F1040F62DC20213046FEF75EFA62
:1038900007460378002B3AD1B8F1020F37DC5549BF
:1038A0002046FEF7EDFC1AE0534B1B68002BFBD1C2
:1038B000514D2C605149524B1868FFF7B3F9002362
:1038C0002B600CE04E4B1868FFF7FCF94D49204681
:1038D000FEF7D6FC03E047492046FEF7D1FC0AB0CC
:1038E000BDE8F08743492046FEF7CAFCF7E74649A2
:1038F0002046FEF7C5FCF2E74946414B1868FFF742
:1039000023FA024641492046FEF7BAFCE7E70023C6
:103910003B703046FEF74FFAB8F1030F0BD00AABFD
:1039200003EB880343F8140C781CFEF75DFA064697
:1039300008F10108A5E710213046FEF703FB02F06D
:103940006BF94FF05E5102F0BBF98246ECE7742D43
:1039500017D09DF924300293CDF804A09DF81C30B7
:1039600000939DF81830059A494625480068FFF7EE
:10397000C6FA431D042B32D8DFE803F0262C201AA8
:1039800014009DF924300293CDF804A09DF81C305A
:1039900000939DF81830059A494619480068FFF7CA
:1039A00089FAE6E7059A1A492046FEF769FC96E788
:1039B000069A18492046FEF763FC90E7079A1649D5
:1039C0002046FEF75DFC8AE7059A14492046FEF77B
:1039D00057FC84E712492046FEF752FC7FE7012896
:1039E00006DD104B024610492046FEF749FC76E7FB
:1039F0000E4BF7E7D86C000808020020D934000805
:103A00000C020020B46C0008EC6C0008006D00088B
:103A1000186D00082C6D0008406D0008546D0008FA
:103A20007C6D0008B06C0008986D0008706B000891
:103A300010B50446074B1868FFF7DAFA0649204626
:103A4000FEF71EFCFEF7F0FC024604492046FEF796
:103A500017FC10BD0C020020C46D0008D46D0008D6
:103A600010B50446FEF739FD38B93220FDF795FB55
:103A700004492046FEF704FC10BD03492046FEF72A
:103A8000FFFBF9E7F06D0008046E000808B501F0CF
:103A9000EDFB2DE9F843054688461746002607E06A
:103AA00008F80600013623782C2B13D1BE4211D220
:103AB0002C212846FEF74AF9044690F8009000238E
:103AC00003702846FDF70CFE254605F8019B3328B8
:103AD000E6D1E8E73046BDE8F88300002DE9F04183
:103AE00084B006460846FEF77FF90446FEF763F900
:103AF000804620212046FEF729F903784BB10A229F
:103B000001A90130FFF7C5FF07463046FDF760FE0B
:103B100026E019493046FEF7B3FB04B0BDE8F0815A
:103B2000B8F1FF3FF9D1154D00240EE004F1100368
:103B30006B4413F80C0CFDF7AFFD03462A46104901
:103B40003046FEF79DFB01340E4DBC42EEDB0E49C4
:103B50003046FEF795FBB8F1FF3F01D008F1FF3882
:103B60003046FDF72FFE0028D7D1B8F1000FD7DD82
:103B7000024D0024E9E700BF1C6E0008706B0008CE
:103B80003C6E0008B46B0008386E000870B504463F
:103B90000D468E4B9988186800F0F5FE8C4E2188F2
:103BA000304601F084F98B4B18806188304601F073
:103BB0007EF9894B1880894B00221A700FE0884BE0
:103BC0001988834801F073F9824B1880010A834AEF
:103BD0001378844CE154591C6054023313707F4BAA
:103BE0001B78482BEBD9794B9988186800F0C9FEEF
:103BF000473D042D00F2E180DFE805F0032E5B87EE
:103C0000B300002523E00134022C1FDC05EBC503C3
:103C10005A1C02EB440273498A5C03EB4403C85C00
:103C200000EB022080B24FF6FF739842EBD001F018
:103C30009DFC00226C4B01F02DFEC5EB05162644C1
:103C400001F010FF694B23F81600DCE70135082D61
:103C500000F3B3800024D7E7002525E00134052CCC
:103C600021DC05EBC5035A1CA4F1030C02EB4C024A
:103C70005C498A5C03EB4C03C85C00EB022080B219
:103C80004FF6FF739842E9D001F070FC0022564BCA
:103C900001F000FEC5EB0516264401F0E3FE534B90
:103CA00023F81600DAE70135082D00F38680032497
:103CB000D5E7002525E00134082C21DC05EBC50300
:103CC0005A1CA4F1060C02EB4C0246498A5C03EB39
:103CD0004C03C85C00EB022080B24FF6FF739842A1
:103CE000E9D001F043FC00223F4B01F0D3FDC5EBCE
:103CF0000516264401F0B6FE3C4B23F81600DAE721
:103D00000135082D59DC0624D6E7002525E00134CD
:103D10000B2C21DC05EBC5035A1CA4F1090C02EBAA
:103D20004C0230498A5C03EB4C03C85C00EB022078
:103D300080B24FF6FF739842E9D001F017FC0022E1
:103D4000294B01F0A7FDC5EB0516264401F08AFEBC
:103D5000264B23F81600DAE70135082D2DDC09245F
:103D6000D6E7002525E001340E2C21DC05EBC50348
:103D70005A1CA4F10C0C02EB4C021A498A5C03EBAE
:103D80004C03C85C00EB022080B24FF6FF739842F0
:103D9000E9D001F0EBFB0022134B01F07BFDC5EBFA
:103DA0000516264401F05EFE104B23F81600DAE7F4
:103DB0000135082D01DC0C24D6E7002341F64B52D7
:103DC000934202DC00BF0133F8E770BD9801002088
:103DD00000300140DE030020E0030020D903002072
:103DE000DC0300201002002000002940E80200202F
:103DF00010B5364B9988186800F0C5FD344B19880A
:103E0000344801F054F8344B18800023334A1370BF
:103E1000334A1370334A137006E0304B00221A7095
:103E2000304A1378013313702E4B1B781F2B1AD88E
:103E30002D4B1988274801F03AF8274B1880274A5C
:103E400013780133DBB21370032BE6D824490B78C7
:103E5000040A264A22F82340C0B202EB83025080B3
:103E600001330B70DCE7194B9988186800F089FD65
:103E70001E4B5B88FF2B01D0002021E00023C72BC5
:103E800022DC00BF0133FAE70132052A17DC00EB20
:103E9000400102EB4101154B03EB81035B88FF2BD3
:103EA000F2D01B029BB2114C34F821100B4400EBF2
:103EB000400102EB41010E4C24F81130E4E70130DF
:103EC0000328DBDC0022E0E710BD00BF98010020E2
:103ED0002401002000300140DE030020D803002030
:103EE000D9030020DA030020DC0300205802002060
:103EF000B8020020144B00221A70134B1B78042BBD
:103F000021D810B50CE000BF0133B3F5FA6FFADB2E
:103F10000D4A1378013313700B4B1B78042B11D807
:103F20000A4CA188206800F02EFD094B1988094829
:103F300000F0BDFF084B1880A188206800F021FD2B
:103F40000023E2E710BD7047D8030020980100204D
:103F5000F800002000300140DE03002070B5064666
:103F60000D460F4B9988186800F00DFD002407E0FE
:103F700036F814100B4800F09AFF0B4B18800134F0
:103F8000A542F5DC064B9988186800F0FAFC00237E
:103F900001E000BF0133B3F5FA6FFADB70BD00BF7B
:103FA0009801002000300140DE030020F8B5012513
:103FB00019E0ECB204F11306F6B20C4F37F8150015
:103FC00001F026FE01463046FDF77AFB1F34E4B2CD
:103FD00005F10F0337F8130001F01AFE01462046E1
:103FE000FDF76EFB01350C2DE3DDF8BDE802002086
:103FF00038B5002412E02946184801F057FD184B47
:104000001860184901F010FF174B1860E0B22D300E
:10401000154B1968C0B2FDF753FB0134012C1BDCB2
:1040200004EB44030133114A32F8130001F0F0FDB0
:1040300005460B4B1860094901F0F4FF0028DAD05F
:104040000649284601F032FD054B1860054901F08C
:10405000EBFE054B1860D9E738BD00BF00608D440A
:10406000E403002000002041E8030020B802002003
:10407000364A1378013BDBB2137003B1704710B5B9
:10408000134605221A70FFF735FFFFF733FFFFF7DE
:1040900031FFFFF72FFF02212D48FFF75FFFFFF7EA
:1040A00029FF4D212B48FFF771FD2B4C4E21204657
:1040B000FFF76CFD4E212046FFF768FD5021274891
:1040C000FFF764FD01212648FFF748FF002301E0C8
:1040D00000BF0133632BFBDD01212148FFF73EFFC9
:1040E000204C4F212046FFF751FD4F212046FFF77E
:1040F0004DFD47211C48FFF749FD48211B48FFF7AC
:1041000045FD49211A48FFF741FD4A211948FFF7AB
:104110003DFD4B211848FFF739FD4C211748FFF7AB
:1041200035FD02210A48FFF719FF002301E000BF17
:104130000133632BFBDD02210548FFF70FFFFFF77B
:1041400057FEFFF733FFFFF753FF10BDF4000020C9
:10415000EC000020140100201801002020010020A4
:10416000F00000201C010020FC00002000010020C5
:1041700004010020080100200C0100201001002093
:104180008368DB075EBF836843F001038360704789
:104190008368DB0742BF836843F001038360704795
:1041A000034AD2F8083443F40003C2F808347047D5
:1041B00000200140836800F1080243F00803836097
:1041C00013681B07FCD47047836843F004038360C3
:1041D00070478068C0F38000704708B50246FFF75B
:1041E000F3FF1046FFF7F5FF0028FAD108BD0022C3
:1041F000134610B501FA02F403321E2A43EA0403FF
:10420000F8D10022036101FA02F40332182A43EACA
:104210000403F8D1C36010BD836823F001038360F9
:104220007047436843F4807343607047836823F4A6
:10423000006383607047836843F0020383607047C4
:104240001029F0B510D800246FF03B064FF0010C98
:10425000274623465FFA8CF5A94206D2013943EA84
:104260000153C36207634463F0BD062D0AD8157875
:1042700006F13C0E05FA0EF52C430CF1010C01324F
:104280000536E7E7073D052D15789BBF06F11E0EA5
:1042900005FA0EF5B5402F4388BF2B43EDE7836841
:1042A00043F4807383607047044B98420CBF40F224
:1042B000192040F21A2000F02DBD00BF006400401C
:1042C0002DE9F3410468884624F002040460046880
:1042D000964644F0010404604FF6FF749DF820C038
:1042E0009DF824109DF828209DF83C609DF84070B2
:1042F0000194019C051D013C019414B14468E4073C
:10430000F7D52C68E4076ED50024C4610468B8F1C1
:10431000000F4FD044F0800404600468BEF1000F29
:104320004BD044F040040460002B49D0036843F0B4
:10433000200303600368BCF1000F45D043F0100375
:1043400003600368002942D043F008030360036858
:10435000002A3FD043F004030360C369002F3CD020
:1043600043F00043C361C369002E39D043F080435A
:10437000C3610E9B0D99013BC3F309030B430C99D9
:10438000C2690B430B990B431343C361036823F0CA
:10439000010303604FF6FF730193019B013B0193FF
:1043A00013B12B68DB07F8D4286800F0010002B0D5
:1043B000BDE8F08124F08004AEE724F04004B2E7C9
:1043C000036823F02003B4E723F01003B8E723F0D9
:1043D0000803BBE723F00403BEE723F00043C1E773
:1043E00023F08043C4E70120E1E70000F0B5012598
:1043F000244C9DF81C70D4F80066854046F00106F8
:10440000C4F80066D4F81CE6EE432EEA050EC4F8A4
:104410001CE641B3D4F80C162943C4F80C1632B389
:10442000D4F804262A4300F1006000F6C840C4F81E
:104430000426C0000360069A059B4360114BD2B16D
:10444000D3F814262A43C3F8142627B1D3F81C2620
:104450001543C3F81C560B4AD2F8003623F001036B
:10446000C2F80036F0BDD4F80C163140D5E7D4F8C8
:1044700004263240D7E7D3F814261640C3F8146652
:10448000E3E700BF0060004030B4BDF808409DF88D
:10449000105044EA0344049542EA01430294012285
:1044A00030BC0021FFF7A2BF1FB5009201229DF88A
:1044B0001840CDE901340B461146FFF797FF04B0D1
:1044C00010BD43690B4343617047436923EA01030D
:1044D000436170472DE9F041804680689DF818E0FF
:1044E0004501079E2AD4D8F8080004012AD4D8F838
:1044F0000800C00050D54FF4D075022005EB080429
:1045000022B3C90041F0040145F808101BB123682B
:1045100043F002032360636823F00F036360626863
:104520000EF00F03134363600EF1FF33072B2AD8FD
:10453000DFE803F02623201B1815120E4FF4C07578
:104540000020DBE74FF4C8750120D7E74905DBE71A
:104550000027F37963F31F67B37963F31747737920
:1045600063F30F27337963F307074FF0000CF378F9
:1045700063F31F6CB37863F3174C737863F30F2CFA
:10458000337863F3070CC4F808C0E760236843F08E
:1045900001032360BDE8F0814FF0FF30FAE721B955
:1045A000C36843F02003C3607047036943F02003EE
:1045B0000361704719B9C06800F0030070470069D3
:1045C000FAE72DE9F347DDF828A00446DDE90E56A9
:1045D000FFF7F0FF884681464FF4E0714FF4D87042
:1045E000CDE9000102A901EB880151F8081C6058CF
:1045F000671810F0040015BF01208AF800008AF83F
:104600000000605816BF6058400DC008186061581F
:104610000B9BC1F34001197079680C9B090A197052
:1046200079680D9B01F00F01197016B17B681B0CA6
:104630003380BE68FB68C6F307216970C6F3074183
:10464000A970C3F307212E702B71C6F30766697139
:10465000C3F30741C3F30763EE70A971EB711AB19D
:1046600041462046FFF79BFF484602B0BDE8F08771
:10467000024A936843F001039360704700300240A0
:10468000014B18601868704700300240002310B5D5
:10469000044A8B4201DB106810BD50F823400133FF
:1046A0001460F6E700300240014BB3F8E0077047B2
:1046B00000F0FF1F14230022013903FB01039A605D
:1046C000DA601A615A610F234268890003FA01F126
:1046D0001143416070470139890002FA01F14160DC
:1046E000704701390368890002FA01F1194214BFC9
:1046F000012000207047142301395943083010B5B8
:104700000C5824F440640C500B5813430B5010BD4C
:10471000142301395943083010B50C5824F440745F
:104720000C500B5813430B5010BD1423013959433F
:1047300008300B5843F080030B50704714230139A5
:10474000594308300B5843F020030B500B5823F407
:1047500080430B50704714230139594308300B58DC
:1047600043F010030B5070471423013959430830AC
:104770000B5843F001030B50704714230139594380
:1047800008300B5823F001030B50704714230139F4
:1047900003FB01008368DB0758BF026170471423E5
:1047A000013903FB01008368DB0758BF4261704792
:1047B0001423013959430C30085880B27047142330
:1047C000013959430C300A507047000038B5064D86
:1047D000EC68FFF769FFB0F5007F84BFE86C044325
:1047E00004F0350038BD00BF0020024038B5044653
:1047F0000D4600F085F8FFF757FFB0F5007F124B2C
:1048000017D9124A944214D91A6D42F001021A655E
:10481000258000F075F8FFF747FFB0F5007F0A4BE1
:104820000CD90A4A944209D91A6D22F001021A657C
:1048300038BD1A6942F001021A61E9E71A6922F0EB
:1048400001021A61F4E700BF00200240FFFF0708E1
:1048500010B5044600F054F8FFF726FFB0F5007FCE
:10486000164B1BD9164A944218D91A6D42F002020F
:104870001A655C651A6D42F040021A6500F040F856
:10488000FFF712FFB0F5007F0C4B11D90C4A944290
:104890000ED91A6D22F002021A6510BD1A6942F093
:1048A00002021A615C611A6942F040021A61E5E78E
:1048B0001A6922F002021A61EFE700BF00200240ED
:1048C000FFFF0708034A136823F00703034313603D
:1048D000704700BF00200240034B044A5A6002F1B7
:1048E00088325A60704700BF0020024023016745AC
:1048F000024A136943F080031361704700200240AD
:1049000008B5FFF763FFC307FBD408BD38B50546FC
:104910000C4689B2FFF76AFF210CA81CBDE838409D
:10492000FFF764BF2DE9F04100264FF00F0E9C46C3
:10493000036847684CFA06F4E4071BD5072E94BFBA
:104940009846B846B4B24FEA84048ABF203CA4B269
:10495000A4B20EFA04F528EA0508A51CADB202FAC5
:1049600005F501FA04F42C4344EA0804072E94BF29
:10497000234627460136102EDCD103604760BDE890
:10498000F08101617047090401617047C36801EA61
:10499000030221EA030141EA02410161704700007C
:1049A0004AF6AA22014B1A60704700BF003000404F
:1049B000062824D8DFE800F004090E13181D200093
:1049C000104B1868C0F3406070470E4B1868C0F376
:1049D000C06070470B4B1868C0F340707047094BBC
:1049E0001868C0F340407047064B1868C0F3400099
:1049F0007047044B186AF9E7024B586AF6E7002043
:104A0000704700BF00100240024608B51046FFF78D
:104A1000CFFF0028FAD008BD06282AD8DFE800F02A
:104A2000040A0F14191E2400124A136843F08073FD
:104A3000136070470F4A136843F08063F8E70D4A2C
:104A4000136843F08053F3E70A4A136843F4803352
:104A5000EEE7084A136843F00103E9E7054A136AE1
:104A600043F0010313627047024A536A43F00103A3
:104A70005362704700100240034A536823F0030357
:104A800003435360704700BF00100240034A53685D
:104A900023F4701343EA80435360704700100240D0
:104AA000034AD36A23F4706343EA0023D362704756
:104AB00000100240034AD36A23F4704343EA0033F0
:104AC000D362704700100240034A536823F48033D6
:104AD00043EA00435360704700100240034A5368A2
:104AE00023F4003343EA4043536070470010024010
:104AF000024B186A00F40040704700BF00100240EB
:104B0000024A136A43F400431362704700100240E4
:104B100006283BD8DFE800F035353525350415008B
:104B20001B4B1A6A42F001021A621A6A9007FCD5FE
:104B30001A6A22F440721A621A6A42F480721A6285
:104B40007047134B5A6A42F001025A625A6A91073F
:104B5000FCD51A6A22F440721A621A6A42F4007290
:104B6000EDE70B4B1A6842F480321A601A68920320
:104B7000FCD51A6A22F440721A621A6A42F4407230
:104B8000DDE7034A136A23F440731362704700BFE2
:104B900000100240034A536823F4404343EA803341
:104BA0005360704700100240034A536823F4605377
:104BB00043EAC0235360704700100240034A536821
:104BC00023F4E06343EA002353607047001002407F
:104BD000034A536823F0F00343EA0013536070471D
:104BE00000100240044B5A6818B142F480025A6027
:104BF000704722F48002FAE700100240034AD36AA9
:104C000023F00F030343D362704700BF001002403C
:104C1000034AD36A23F0F00343EA0013D3627047D8
:104C200000100240044BDA6A18B142F48032DA62B2
:104C3000704722F48032FAE70010024010B50446B3
:104C40004378012B0CBF03200420FFF7E5FEFFF79C
:104C5000DBFEA078FFF7BCFFE078FFF7AFFF20791D
:104C6000FFF7A2FF6079FFF795FF207BFFF7BAFF00
:104C7000A079FFF727FE2078FFF708FF6078FFF79D
:104C800023FFE07901282DD9FFF7B8FF207A08B17A
:104C9000FFF7C8FF607A08B1FFF7BAFFA07A30B11A
:104CA000FFF7FEFE0120FFF7B7FEFFF7ADFEE07A4B
:104CB00030B1FFF7FFFE0220FFF7AEFEFFF7A4FEC4
:104CC0000020FFF7A9FEFFF79FFE0220FFF7D4FEAA
:104CD0002269064B1A606269054B1A60A269054B8E
:104CE0001A6010BDFFF7FAFED0E700BF28010020D0
:104CF0002C010020300100200122430903F18043F0
:104D000003F50433196800F01F0002FA00F00843AD
:104D1000186070470122430903F1804303F504330F
:104D2000196800F01F0002FA00F0014319601A68C8
:104D300022EA000018607047054BD3F80428920659
:104D4000FBD5D3F8042842F01002C3F804287047BA
:104D500000200040054BD3F8042822F01002C3F8CD
:104D60000428D3F804289206FBD5704700200040A1
:104D700038B5044600254FF46770FFF7BDFF40F2D9
:104D80009B30FFF7B9FF00F097FA2046124CFFF76F
:104D9000BFFEC4F80058C4F80458FFF7B1FEFFF78F
:104DA000CBFF4FF6FF73C4F80858C4F80C58C4F88A
:104DB0001858C4F81C58C4F82038C4F82438FFF731
:104DC000C9FFD4F8043823F00803C4F80438D4F831
:104DD00004381B07FBD538BD0020004008B5FFF79D
:104DE000ABFF064B82B2C0F30340C3F80C28C3F8F4
:104DF0000808BDE80840FFF7ADBF00BF0020004035
:104E0000034BD3F81808D3F81C3843EA0040704726
:104E10000020004008B5FFF78FFF054B020C80B261
:104E2000C3F81828C3F81C08BDE80840FFF792BF74
:104E30000020004008B54FF46770FFF75DFF40F2B7
:104E40009B30FFF759FF00F037FA084BD3F80428DE
:104E500022F00802C3F80428D3F804281107FBD570
:104E6000D3F804289206FBD508BD00BF00200040FF
:104E700038B505464FF467700C46FFF73DFF40F22A
:104E80009B30FFF739FFFFF733FE18B1BDE838401C
:104E9000FFF7D0BF2846FFF76BFF2046BDE838403C
:104EA000FFF79CBF036843F0400303607047C16095
:104EB0008368DB07FCD5C06880B27047036843F4A1
:104EC00000730360436823F0040343607047036882
:104ED00043F480730360704703299FBF036823F086
:104EE000030319430160704730B50468049D04F45E
:104EF00041542C43039D2C431C43144343680C43EF
:104F000044F0040443F0040343600460002030BD17
:104F1000C3680B43C360704703690B4214BF012091
:104F200000207047C94301617047036843F0800364
:104F300003607047036823F0100303607047036841
:104F400043F0010303607047036823F0010303602B
:104F5000704781627047C162704706297AD8DFE8DE
:104F600001F00479337963799200836923F00303B4
:104F7000836183698361836923F070038361072AF6
:104F800068D8DFE802F03304090D1115191D836993
:104F900043F0100383617047836943F02003F9E70E
:104FA000836943F03003F5E7836943F04003F1E799
:104FB000836943F05003EDE7836943F06003E9E759
:104FC000836943F07003E5E7836923F440738361E9
:104FD00083698361836923F4E0438361072A39D8B5
:104FE000DFE802F004060A0E12161A1E8369D1E7E2
:104FF000836943F48053CDE7836943F40053C9E7E1
:10500000836943F44053C5E7836943F48043C1E7B0
:10501000836943F4A043BDE7836943F4C043B9E720
:10502000836943F4E043B5E7C36923F00303C36135
:10503000C369C361C36923F07003C361072A09D838
:10504000DFE802F03304090D1115191DC36943F09F
:105050001003C3617047C36943F02003F9E7C369D4
:1050600043F03003F5E7C36943F04003F1E7C36958
:1050700043F05003EDE7C36943F06003E9E7C36918
:1050800043F07003E5E7C36923F44073C361C36968
:10509000C361C36923F4E043C361072ADAD8DFE8B8
:1050A00002F004060A0E12161A1EC369D1E7C3697C
:1050B00043F48053CDE7C36943F40053C9E7C369A0
:1050C00043F44053C5E7C36943F48043C1E7C36970
:1050D00043F4A043BDE7C36943F4C043B9E7C369E0
:1050E00043F4E043B5E706290CD8DFE801F0040BF0
:1050F000060B080B0A004263704782637047C26365
:10510000704702647047406A704741627047000010
:10511000064A074B90421B6804BF064B1B6803EB13
:105120005103B3FBF1F38360704700BF00380140C7
:105130002C01002030010020C36808290CBF23F493
:10514000805343F48053C3607047036923F4405392
:105150000B4303617047C36823F4C0630B43C36010
:105160007047C36823F00C030B43C3607047436967
:1051700023F440730B4343617047C36843F4005307
:10518000C360704738B504460D4600F018F829464C
:105190002046BDE8384000F00AB8436943F04003B8
:1051A00043617047436943F0800343617047C1F333
:1051B0000801416070474068C0F308007047036809
:1051C0001B06FCD5704703680B4214BF012000206A
:1051D0007047FEE77047000038B51A4A1A4B1B4962
:1051E0008B421AD300211A4A93421BD34FF0E0227C
:1051F000D2F8143D174C43F40073174DC2F8143D18
:10520000AC4212D3154C164DAC4212D3FBF7CEFF75
:10521000144C154DAC4210D338BD52F8040B43F872
:10522000040BDDE743F8041BDEE754F8043B984722
:10523000E6E754F8043B9847E6E754F8043B984700
:10524000E8E700BFD86E000800000020340100200D
:10525000EC030020D06E0008D06E0008D06E00086D
:10526000D86E0008D86E0008D86E00084FF0E02312
:10527000014AC3F80C2DFEE70400FA050122430998
:105280009B0003F1604300F01F0003F5614302FA45
:1052900000F0186070470000432893BF00F16040A1
:1052A000044B00F00F0000F564408CBFC154017046
:1052B000704700BF14ED00E0024A136843F48073A6
:1052C000136070470070004081F0004102E000BFB1
:1052D00083F0004330B54FEA41044FEA430594EAB6
:1052E000050F08BF90EA020F1FBF54EA000C55EAF1
:1052F000020C7FEA645C7FEA655C00F0E2804FEAC2
:105300005454D4EB5555B8BF6D420CDD2C4480EAA3
:10531000020281EA030382EA000083EA010180EAD3
:10532000020281EA0303362D88BF30BD11F0004F21
:105330004FEA01314FF4801C4CEA113102D0404257
:1053400061EB410113F0004F4FEA03334CEA133392
:1053500002D0524263EB430394EA050F00F0A780AA
:10536000A4F10104D5F1200E0DDB02FA0EFC22FAA5
:1053700005F2801841F1000103FA0EF2801843FA99
:1053800005F359410EE0A5F120050EF1200E012A8A
:1053900003FA0EFC28BF4CF0020C43FA05F3C018C8
:1053A00051EBE37101F0004507D54FF0000EDCF141
:1053B000000C7EEB00006EEB0101B1F5801F1BD3EA
:1053C000B1F5001F0CD349085FEA30004FEA3C0CEE
:1053D00004F101044FEA445212F5800F80F09A80E4
:1053E000BCF1004F08BF5FEA500C50F1000041EBE8
:1053F000045141EA050130BD5FEA4C0C404141EBEC
:105400000101013C28BFB1F5801FE9D291F0000FE6
:1054100004BF01460020B1FA81F308BF2033A3F195
:105420000B03B3F120020CDA0C3208DD02F1140C8C
:10543000C2F10C0201FA0CF021FA02F10CE002F1C7
:105440001402D8BFC2F1200C01FA02F120FA0CFCC0
:10545000DCBF41EA0C019040E41AA2BF01EB045109
:10546000294330BD6FEA04041F3C1CDA0C340EDC07
:1054700004F11404C4F1200220FA04F001FA02F34A
:1054800040EA030021FA04F345EA030130BDC4F108
:105490000C04C4F1200220FA02F001FA04F340EAFD
:1054A0000300294630BD21FA04F0294630BD94F0AE
:1054B000000F83F4801306BF81F480110134013D95
:1054C0004EE77FEA645C18BF7FEA655C29D094EA06
:1054D000050F08BF90EA020F05D054EA000C04BF84
:1054E0001946104630BD91EA030F1EBF002100206F
:1054F00030BD5FEA545C05D14000494128BF41F00E
:10550000004130BD14F580043CBF01F5801130BD71
:1055100001F0004545F0FE4141F470014FF00000FC
:1055200030BD7FEA645C1ABF194610467FEA655CAD
:105530001CBF0B46024650EA013406BF52EA03354F
:1055400091EA030F41F4002130BD00BF90F0000F3D
:1055500004BF0021704730B54FF4806404F1320479
:105560004FF000054FF0000150E700BF90F0000F32
:1055700004BF0021704730B54FF4806404F1320459
:1055800010F0004548BF40424FF000013EE700BF29
:1055900042004FEAE2014FEA31014FEA02701FBFB9
:1055A00012F07F4393F07F4F81F06051704732F0EB
:1055B0007F4208BF704793F07F4F04BF41F4002142
:1055C000704730B54FF4607401F0004521F00041A0
:1055D0001CE700BF50EA010208BF704730B54FF02A
:1055E00000050AE050EA010208BF704730B511F02B
:1055F000004502D5404261EB41014FF4806404F163
:1056000032045FEA915C3FF4D8AE4FF003025FEAE8
:10561000DC0C18BF03325FEADC0C18BF033202EB6C
:10562000DC02C2F1200300FA03FC20FA02F001FAC6
:1056300003FE40EA0E0021FA02F11444BDE600BF69
:1056400070B54FF0FF0C4CF4E06C1CEA11541DBF18
:105650001CEA135594EA0C0F95EA0C0F00F0DEF8E3
:105660002C4481EA030621EA4C5123EA4C5350EAC8
:10567000013518BF52EA033541F4801143F4801319
:1056800038D0A0FB02CE4FF00005E1FB02E506F0AA
:105690000042E0FB03E54FF00006E1FB03569CF0FF
:1056A000000F18BF4EF0010EA4F1FF04B6F5007F05
:1056B00064F5407404D25FEA4E0E6D4146EB060677
:1056C00042EAC62141EA55514FEAC52040EA5E5000
:1056D0004FEACE2EB4F1FD0C88BFBCF5E06F1ED8AA
:1056E000BEF1004F08BF5FEA500E50F1000041EBE1
:1056F000045170BD06F0004646EA010140EA02008E
:1057000081EA0301B4EB5C04C2BFD4EB0C0541EAAF
:10571000045170BD41F480114FF0000E013C00F3C4
:10572000AB8014F1360FDEBF002001F0004170BDE8
:10573000C4F10004203C35DA0C341BDC04F1140401
:10574000C4F1200500FA05F320FA04F001FA05F28D
:1057500040EA020001F0004221F0004110EBD3705A
:1057600021FA04F642EB06015EEA430E08BF20EA86
:10577000D37070BDC4F10C04C4F1200500FA04F329
:1057800020FA05F001FA04F240EA020001F00041BB
:1057900010EBD37041F100015EEA430E08BF20EA2E
:1057A000D37070BDC4F1200500FA05F24EEA020E76
:1057B00020FA04F301FA05F243EA020321FA04F0A5
:1057C00001F0004121FA04F220EA020000EBD3705C
:1057D0005EEA430E08BF20EAD37070BD94F0000F5C
:1057E0000FD101F00046400041EB010111F4801F90
:1057F00008BF013CF7D041EA060195F0000F18BF41
:10580000704703F00046520043EB030313F4801F7C
:1058100008BF013DF7D043EA0603704794EA0C0F36
:105820000CEA135518BF95EA0C0F0CD050EA41064C
:1058300018BF52EA4306D1D181EA030101F00041C9
:105840004FF0000070BD50EA410606BF10461946F1
:1058500052EA430619D094EA0C0F02D150EA0136FD
:1058600013D195EA0C0F05D152EA03361CBF10463E
:1058700019460AD181EA030101F0004141F0FE41DD
:1058800041F470014FF0000070BD41F0FE4141F461
:10589000780170BD70B54FF0FF0C4CF4E06C1CEA61
:1058A00011541DBF1CEA135594EA0C0F95EA0C0F16
:1058B00000F0A7F8A4EB050481EA030E52EA0335D1
:1058C0004FEA013100F088804FEA03334FF08055F2
:1058D00045EA131343EA12634FEA022245EA11151F
:1058E00045EA10654FEA00260EF000419D4208BFD0
:1058F000964244F1FD0404F5407402D25B084FEA7D
:105900003202B61A65EB03055B084FEA32024FF428
:1059100080104FF4002CB6EB020E75EB030E22BF85
:10592000B61A754640EA0C005B084FEA3202B6EB45
:10593000020E75EB030E22BFB61A754640EA5C00F4
:105940005B084FEA3202B6EB020E75EB030E22BF84
:10595000B61A754640EA9C005B084FEA3202B6EB85
:10596000020E75EB030E22BFB61A754640EADC0044
:1059700055EA060E18D04FEA051545EA16754FEAA6
:1059800006164FEAC30343EA52734FEAC2025FEAC4
:105990001C1CC0D111F4801F0BD141EA00014FF053
:1059A00000004FF0004CB6E711F4801F04BF014324
:1059B0000020B4F1FD0C88BFBCF5E06F3FF6AFAE40
:1059C000B5EB030C04BFB6EB020C5FEA500C50F1D0
:1059D000000041EB045170BD0EF0004E4EEA113153
:1059E00014EB5C04C2BFD4EB0C0541EA045170BD5A
:1059F00041F480114FF0000E013C90E645EA060E9E
:105A00008DE60CEA135594EA0C0F08BF95EA0C0FCB
:105A10003FF43BAF94EA0C0F0AD150EA01347FF413
:105A200034AF95EA0C0F7FF425AF104619462CE7EA
:105A300095EA0C0F06D152EA03353FF4FDAE10464D
:105A4000194622E750EA410618BF52EA43067FF49E
:105A5000C5AE50EA41047FF40DAF52EA43057FF42E
:105A6000EBAE12E74A0011D212F5001211D20DD599
:105A70006FF47873B3EB62520ED44FEAC12343F054
:105A8000004343EA505323FA02F070474FF00000FE
:105A9000704750EA013002D14FF0FF3070474FF0AD
:105AA0000000704780F0004002E000BF81F000413C
:105AB00042001FBF5FEA410392EA030F7FEA226CB4
:105AC0007FEA236C6AD04FEA1262D2EB1363C1BF44
:105AD000D218414048404140B8BF5B42192B88BFB3
:105AE000704710F0004F40F4000020F07F4018BFD6
:105AF000404211F0004F41F4000121F07F4118BFF6
:105B0000494292EA030F3FD0A2F1010241FA03FC9D
:105B100010EB0C00C3F1200301FA03F100F0004385
:105B200002D5494260EB4000B0F5000F13D3B0F14D
:105B3000807F06D340084FEA310102F10102FE2ABC
:105B400051D2B1F1004F40EBC25008BF20F001002C
:105B500040EA03007047490040EB0000013A28BFCB
:105B6000B0F5000FEDD2B0FA80FCACF1080CB2EB4E
:105B70000C0200FA0CF0AABF00EBC25052421843CC
:105B8000BCBFD0401843704792F0000F81F4000171
:105B900006BF80F400000132013BB5E74FEA410344
:105BA0007FEA226C18BF7FEA236C21D092EA030FB0
:105BB00004D092F0000F08BF0846704790EA010F2A
:105BC0001CBF0020704712F07F4F04D1400028BF57
:105BD00040F00040704712F100723CBF00F5000039
:105BE000704700F0004343F0FE4040F4000070476F
:105BF0007FEA226216BF08467FEA2363014642021B
:105C000006BF5FEA412390EA010F40F4800070472D
:105C10004FF0000304E000BF10F0004348BF4042D3
:105C20005FEA000C08BF704743F0964301464FF00F
:105C300000001CE050EA010208BF70474FF000036B
:105C40000AE000BF50EA010208BF704711F00043AC
:105C500002D5404261EB41015FEA010C02BF84467C
:105C60000146002043F0B64308BFA3F18053A3F5DB
:105C70000003BCFA8CF2083AA3EBC25310DB01FA22
:105C800002FC634400FA02FCC2F12002BCF1004FA6
:105C900020FA02F243EB020008BF20F00100704737
:105CA00002F1200201FA02FCC2F1200250EA4C008B
:105CB00021FA02F243EB020008BF20EADC707047D1
:105CC0004FF0FF0C1CEAD0521EBF1CEAD15392EADF
:105CD0000C0F93EA0C0F6FD01A4480EA010C4002BB
:105CE00018BF5FEA41211ED04FF0006343EA501015
:105CF00043EA5111A0FB01310CF00040B1F5000F57
:105D00003EBF490041EAD3715B0040EA010062F105
:105D10007F02FD2A1DD8B3F1004F40EBC25008BFEF
:105D200020F00100704790F0000F0CF0004C08BF0D
:105D300049024CEA502040EA51207F3AC2BFD2F1DA
:105D4000FF0340EAC250704740F400004FF00003E8
:105D5000013A5DDC12F1190FDCBF00F00040704722
:105D6000C2F10002410021FA02F1C2F1200200FA60
:105D700002FC5FEA310040F1000053EA4C0308BF27
:105D800020EADC70704792F0000F00F0004C02BF78
:105D9000400010F4000F013AF9D040EA0C0093F0F3
:105DA000000F01F0004C02BF490011F4000F013B4D
:105DB000F9D041EA0C018FE70CEAD15392EA0C0FBB
:105DC00018BF93EA0C0F0AD030F0004C18BF31F026
:105DD000004CD8D180EA010000F00040704790F0FC
:105DE000000F17BF90F0004F084691F0000F91F0A0
:105DF000004F14D092EA0C0F01D142020FD193EA66
:105E00000C0F03D14B0218BF084608D180EA0100ED
:105E100000F0004040F0FE4040F40000704740F0C9
:105E2000FE4040F4400070474FF0FF0C1CEAD05297
:105E30001EBF1CEAD15392EA0C0F93EA0C0F69D0F3
:105E4000A2EB030280EA010C49024FEA402037D05E
:105E50004FF0805343EA111143EA10130CF0004055
:105E60008B4238BF5B0042F17D024FF4000C8B4245
:105E700024BF5B1A40EA0C00B3EB510F24BFA3EB25
:105E8000510340EA5C00B3EB910F24BFA3EB9103F5
:105E900040EA9C00B3EBD10F24BFA3EBD10340EA4F
:105EA000DC001B0118BF5FEA1C1CE0D1FD2A3FF695
:105EB00050AF8B4240EBC25008BF20F0010070474A
:105EC0000CF0004C4CEA50207F32C2BFD2F1FF03ED
:105ED00040EAC250704740F400004FF00003013A1E
:105EE00037E792F0000F00F0004C02BF400010F4C2
:105EF000000F013AF9D040EA0C0093F0000F01F0D6
:105F0000004C02BF490011F4000F013BF9D041EAF7
:105F10000C0195E70CEAD15392EA0C0F08D142022A
:105F20007FF47DAF93EA0C0F7FF470AF084676E7FD
:105F300093EA0C0F04D14B023FF44CAF08466EE7D6
:105F400030F0004C18BF31F0004CCAD130F00042A4
:105F50007FF45CAF31F000437FF43CAF5FE700BFFC
:105F60004FF0FF3C06E000BF4FF0010C02E000BF25
:105F70004FF0010C4DF804CD4FEA40024FEA4103C7
:105F80007FEA226C18BF7FEA236C11D001B052EA7D
:105F9000530C18BF90EA010F58BFB2EB030088BF43
:105FA000C81738BF6FEAE17018BF40F001007047B2
:105FB0007FEA226C02D15FEA402C05D17FEA236C94
:105FC000E4D15FEA412CE1D05DF8040B704700BFDB
:105FD000844608466146FFE70FB5FFF7C9FF002872
:105FE00048BF10F1000F0FBD4DF808EDFFF7F4FFAB
:105FF0000CBF012000205DF808FB00BF4DF808ED44
:10600000FFF7EAFF34BF012000205DF808FB00BF66
:106010004DF808EDFFF7E0FF94BF012000205DF888
:1060200008FB00BF4DF808EDFFF7D2FF94BF012039
:1060300000205DF808FB00BF4DF808EDFFF7C8FF32
:1060400034BF012000205DF808FB00BF4FEA40028A
:10605000B2F1FE4F0FD34FF09E03B3EB12620DD996
:106060004FEA002343F0004310F0004F23FA02F000
:1060700018BF404270474FF00000704712F1610FA7
:1060800001D1420205D110F0004008BF6FF000407E
:1060900070474FF00000704700020406424D530065
:1060A0007479706500000000303D4D6F64656C5F71
:1060B000332C20313D4D6F64656C5F530000000050
:1060C0006E756D626D62730062616C616E63650016
:1060D000303D4F66662C20313D4F6E006E6F6D6314
:1060E000617000004168000053656E736F72207329
:1060F00065747570000000006964636761696E0013
:106100006469672F410000006964636F6673000073
:10611000646967006964636D6F646500303D4F6654
:10612000662C20313D41646353696E676C652C2099
:10613000323D49736143616E000000006F706D6F06
:1061400064650000303D4F66662C20313D52756E0F
:106150002C20323D52756E42616C616E63650000A9
:1061600076657273696F6E00343D302E30312E418A
:1061700000000000736F6300417300006368617288
:1061800067656C696D0000006469736368617267BC
:10619000656C696D0000000064656C7461560000F8
:1061A0006D5600007564630056000000696463006A
:1061B00074656D7000000000C2B0430075617667C1
:1061C00000000000756D696E00000000756D61785B
:1061D00000000000753000007531000075320000CD
:1061E0007533000075340000753500007536000009
:1061F00075370000753800007539000075313000C2
:10620000753131007531320075313300753134002C
:10621000753135007531360075313700753138000C
:106220007531390075323000753231007532320007
:106230007532330075323400753235007430000029
:106240007431000074320000743300006370756CA8
:106250006F616400250000009C600008A0600008D9
:10626000A8600008000000002000000000000000FE
:10627000010000009C600008C0600008706B00080E
:10628000200000008000000020000000020000004C
:106290009C600008C8600008D06000080000000092
:1062A0002000000000000000030000009C600008C7
:1062B000DC600008E460000800000000007D0000D1
:1062C000800C000004000000E8600008F86000088E
:1062D000006100080083FFFF007D00004001000016
:1062E00005000000E860000808610008106100086F
:1062F0002000FEFFE0FF010000000000060000009B
:10630000E8600008146100081C610008000000003B
:106310006000000000000000070000000000000016
:106320003C6100084461000800000000000000001B
:1063300000000000D00700000000000060610008BD
:10634000686100080000000000000000000000007C
:10635000D1070000000000007461000878610008A7
:10636000000000000000000000000000D207000054
:10637000000000007C6100080461000800000000CB
:106380000000000000000000D30700000000000033
:10639000886100080461000800000000000000009F
:1063A00000000000D4070000000000009861000811
:1063B000A0610008000000000000000000000000D4
:1063C000D507000000000000A4610008A8610008D3
:1063D000000000000000000000000000D6070000E0
:1063E00000000000AC61000804610008000000002B
:1063F0000000000000000000D707000000000000BF
:10640000B0610008B8610008000000000000000052
:1064100000000000D807000000000000BC61000878
:10642000A061000800000000000000000000000063
:10643000D907000000000000C4610008A061000846
:10644000000000000000000000000000DA0700006B
:1064500000000000CC610008A061000800000000FE
:106460000000000000000000DB070000000000004A
:10647000D4610008A06100080000000000000000D6
:1064800000000000DC07000000000000D8610008E8
:10649000A0610008000000000000000000000000F3
:1064A000DD07000000000000DC610008A0610008BA
:1064B000000000000000000000000000DE070000F7
:1064C00000000000E0610008A0610008000000007A
:1064D0000000000000000000DF07000000000000D6
:1064E000E4610008A0610008000000000000000056
:1064F00000000000E007000000000000E861000864
:10650000A061000800000000000000000000000082
:10651000E107000000000000EC610008A061000835
:10652000000000000000000000000000E207000082
:1065300000000000F0610008A061000800000000F9
:106540000000000000000000E30700000000000061
:10655000F4610008A06100080000000000000000D5
:1065600000000000E407000000000000F8610008DF
:10657000A061000800000000000000000000000012
:10658000E507000000000000FC610008A0610008B1
:10659000000000000000000000000000E60700000E
:1065A0000000000000620008A06100080000000078
:1065B0000000000000000000E707000000000000ED
:1065C00004620008A0610008000000000000000054
:1065D00000000000E807000000000000086200085A
:1065E000A0610008000000000000000000000000A2
:1065F000E9070000000000000C620008A06100082C
:10660000000000000000000000000000EA07000099
:106610000000000010620008A061000800000000F7
:106620000000000000000000EB0700000000000078
:1066300014620008A06100080000000000000000D3
:1066400000000000EC0700000000000018620008D5
:10665000A061000800000000000000000000000031
:10666000ED070000000000001C620008A0610008A7
:10667000000000000000000000000000EE07000025
:106680000000000020620008A06100080000000077
:106690000000000000000000EF0700000000000004
:1066A00024620008A0610008000000000000000053
:1066B00000000000F0070000000000002862000851
:1066C000A0610008000000000000000000000000C1
:1066D000F1070000000000002C620008A061000823
:1066E000000000000000000000000000F3070000B0
:1066F0000000000030620008A061000800000000F7
:106700000000000000000000F4070000000000008E
:1067100034620008A06100080000000000000000D2
:1067200000000000F50700000000000038620008CB
:10673000A061000800000000000000000000000050
:10674000F6070000000000003C620008B861000885
:10675000000000000000000000000000F80700003A
:106760000000000040620008B8610008000000005E
:106770000000000000000000F90700000000000019
:1067800044620008B861000800000000000000003A
:1067900000000000FA070000000000004862000846
:1067A000B8610008000000000000000000000000C8
:1067B000FB070000000000004C6200085462000863
:1067C000000000000000000000000000FC070000C6
:1067D000426175642072617465206E6F77200000DD
:1067E000656E61626C6575617274000066617374D8
:1067F0007561727400000000556E6B6E6F776E20CD
:10680000636F6D6D616E642073657175656E636530
:106810000D0A0000000000000000000099110008AF
:10682000003801400405000000080140000200009B
:10683000000C01404000000000440040070600003A
:106840000008014004000000001401402000000086
:106850000048004002030000000C0140000400005A
:1068600000100140000400000000000000000000D3
:10687000591C0008253038583A253038583A253008
:1068800038580D0A0000000044656661756C747329
:10689000206C6F616465640D0A000000736574000C
:1068A00067657400666C6167000000007374726550
:1068B000616D00006A736F6E0000000063616E001E
:1068C00073617665000000006C6F61640000000079
:1068D000726573657400000064656661756C74733D
:1068E0000000000068656C7000000000736572694C
:1068F000616C00006572726F727300009C68000822
:1069000059350008A0680008C9350008A4680008C7
:1069100021360008AC680008DD3A0008B4680008B9
:10692000091D0008BC68000815380008C068000888
:10693000313A0008C8680008613A0008D0680008C9
:106940008D3A0008D8680008F11C0008E4680008C7
:10695000BD1C0008EC680008C91C0008F4680008A9
:10696000BF1C00080000000000000000286E756CCD
:106970006C2900000000000000000000DB2000087F
:106980005B25755D3A202573202D2025730D0A00A7
:106990004E6F204572726F72730D0A0053544F5040
:1069A0000000000044455241544500005741524EFA
:1069B00000000000303D4E4F4E452C20313D5445E7
:1069C00053544552524F522C00000000544553542A
:1069D0004552524F52000000706B00080300000047
:1069E000CC690008000000009C690008A469000848
:1069F000AC69000800000800000050001200000010
:106A00000000080000005000090000000000030022
:106A10000000200009000000000004000000200029
:106A20000500000000000500000040000300000019
:106A30000000000000000000A5250008ED2500086A
:106A4000B5270008000000000000000099110008B0
:106A500099110008991100080000000000000000D2
:106A6000492A00084D2A000800000000000000002C
:106A700099110008991100080000000000000000B2
:106A8000293300085D2B0008252B0008FCFFFFFFC1
:106A900000000000552B000863616E20000000001C
:106AA00072782000747820002573202564202564E6
:106AB0002025642025662025640D0A004E6F207075
:106AC0006172616D657465722076616C75652067B1
:106AD0006976656E0D0A0000536574204F4B0D0AF0
